{"src/PoolWithHigherInterest.sol":{"PoolWithHigherInterest":{"abi":[{"inputs":[],"stateMutability":"nonpayable","type":"constructor"},{"anonymous":false,"inputs":[{"indexed":false,"internalType":"address","name":"customer","type":"address"}],"name":"Refund","type":"event"},{"inputs":[{"internalType":"uint256","name":"value","type":"uint256"}],"name":"changeLowestDepositAmount","outputs":[],"stateMutability":"nonpayable","type":"function"},{"inputs":[{"internalType":"uint256","name":"newRate","type":"uint256"}],"name":"changeRate","outputs":[],"stateMutability":"nonpayable","type":"function"},{"inputs":[],"name":"deposit","outputs":[],"stateMutability":"payable","type":"function"},{"inputs":[],"name":"funds","outputs":[{"internalType":"uint256","name":"","type":"uint256"}],"stateMutability":"view","type":"function"},{"inputs":[],"name":"getBalance","outputs":[{"internalType":"uint256","name":"","type":"uint256"}],"stateMutability":"view","type":"function"},{"inputs":[],"name":"getFunds","outputs":[{"internalType":"uint256","name":"","type":"uint256"}],"stateMutability":"view","type":"function"},{"inputs":[],"name":"getInterestRate","outputs":[{"internalType":"uint256","name":"","type":"uint256"}],"stateMutability":"view","type":"function"},{"inputs":[],"name":"getInvestedAmount","outputs":[{"internalType":"uint256","name":"","type":"uint256"}],"stateMutability":"view","type":"function"},{"inputs":[],"name":"getLowestDepositAmount","outputs":[{"internalType":"uint256","name":"","type":"uint256"}],"stateMutability":"view","type":"function"},{"inputs":[],"name":"interestRate","outputs":[{"internalType":"uint256","name":"","type":"uint256"}],"stateMutability":"view","type":"function"},{"inputs":[],"name":"investedAmount","outputs":[{"internalType":"uint256","name":"","type":"uint256"}],"stateMutability":"view","type":"function"},{"inputs":[],"name":"lastUpdate","outputs":[{"internalType":"uint256","name":"","type":"uint256"}],"stateMutability":"view","type":"function"},{"inputs":[],"name":"lowestDepositAmount","outputs":[{"internalType":"uint256","name":"","type":"uint256"}],"stateMutability":"view","type":"function"},{"inputs":[{"internalType":"string","name":"name","type":"string"}],"name":"register","outputs":[],"stateMutability":"nonpayable","type":"function"},{"inputs":[],"name":"totalInterest","outputs":[{"internalType":"uint256","name":"","type":"uint256"}],"stateMutability":"view","type":"function"},{"inputs":[{"internalType":"address","name":"","type":"address"}],"name":"users","outputs":[{"internalType":"uint256","name":"balance","type":"uint256"},{"internalType":"uint256","name":"lastUpdateTime","type":"uint256"},{"internalType":"string","name":"name","type":"string"}],"stateMutability":"view","type":"function"},{"inputs":[{"internalType":"uint256","name":"amount","type":"uint256"}],"name":"withdraw","outputs":[],"stateMutability":"nonpayable","type":"function"}],"devdoc":{"kind":"dev","methods":{},"version":1},"evm":{"bytecode":{"linkReferences":{},"object":"608060405234801561001057600080fd5b5033600160006101000a81548173ffffffffffffffffffffffffffffffffffffffff021916908373ffffffffffffffffffffffffffffffffffffffff1602179055506000600281905550600060038190555042600481905550600460058190555060006006819055506729a2241af62c0000600781905550611a87806100976000396000f3fe6080604052600436106100fe5760003560e01c80639865f1c211610095578063c89f2ce411610064578063c89f2ce414610315578063d0e30db014610340578063eaab45971461034a578063f2c298be14610375578063f31218001461039e576100fe565b80639865f1c214610257578063a87430ba14610280578063bc7a36d6146102bf578063c0463711146102ea576100fe565b8063608032ed116100d1578063608032ed146101ad57806362243096146101d857806374e7493b146102035780637c3a00fd1461022c576100fe565b806312065fe0146101035780632e1a7d4d1461012e5780634d9b3735146101575780635257b56614610182575b600080fd5b34801561010f57600080fd5b506101186103c9565b6040516101259190610f55565b60405180910390f35b34801561013a57600080fd5b5061015560048036038101906101509190610fb0565b6104a8565b005b34801561016357600080fd5b5061016c610763565b6040516101799190610f55565b60405180910390f35b34801561018e57600080fd5b506101976107fd565b6040516101a49190610f55565b60405180910390f35b3480156101b957600080fd5b506101c2610897565b6040516101cf9190610f55565b60405180910390f35b3480156101e457600080fd5b506101ed6108a1565b6040516101fa9190610f55565b60405180910390f35b34801561020f57600080fd5b5061022a60048036038101906102259190610fb0565b61093b565b005b34801561023857600080fd5b506102416109d5565b60405161024e9190610f55565b60405180910390f35b34801561026357600080fd5b5061027e60048036038101906102799190610fb0565b6109db565b005b34801561028c57600080fd5b506102a760048036038101906102a2919061103b565b610a75565b6040516102b6939291906110f8565b60405180910390f35b3480156102cb57600080fd5b506102d4610b27565b6040516102e19190610f55565b60405180910390f35b3480156102f657600080fd5b506102ff610b2d565b60405161030c9190610f55565b60405180910390f35b34801561032157600080fd5b5061032a610b33565b6040516103379190610f55565b60405180910390f35b610348610b39565b005b34801561035657600080fd5b5061035f610cc4565b60405161036c9190610f55565b60405180910390f35b34801561038157600080fd5b5061039c6004803603810190610397919061126b565b610cca565b005b3480156103aa57600080fd5b506103b3610d9e565b6040516103c09190610f55565b60405180910390f35b6000806000803373ffffffffffffffffffffffffffffffffffffffff1673ffffffffffffffffffffffffffffffffffffffff168152602001908152602001600020600101541161044e576040517f08c379a000000000000000000000000000000000000000000000000000000000815260040161044590611300565b60405180910390fd5b61045733610da4565b6000803373ffffffffffffffffffffffffffffffffffffffff1673ffffffffffffffffffffffffffffffffffffffff168152602001908152602001600020600001546104a3919061134f565b905090565b60008060003373ffffffffffffffffffffffffffffffffffffffff1673ffffffffffffffffffffffffffffffffffffffff168152602001908152602001600020600101541161052c576040517f08c379a000000000000000000000000000000000000000000000000000000000815260040161052390611300565b60405180910390fd5b6000811161056f576040517f08c379a0000000000000000000000000000000000000000000000000000000008152600401610566906113f5565b60405180910390fd5b806000803373ffffffffffffffffffffffffffffffffffffffff1673ffffffffffffffffffffffffffffffffffffffff1681526020019081526020016000206000015410156105f3576040517f08c379a00000000000000000000000000000000000000000000000000000000081526004016105ea90611461565b60405180910390fd5b6105fc33610e6d565b806000803373ffffffffffffffffffffffffffffffffffffffff1673ffffffffffffffffffffffffffffffffffffffff168152602001908152602001600020600001600082825461064d9190611481565b92505081905550426000803373ffffffffffffffffffffffffffffffffffffffff1673ffffffffffffffffffffffffffffffffffffffff1681526020019081526020016000206001018190555080600260008282546106ac9190611481565b9250508190555060003373ffffffffffffffffffffffffffffffffffffffff16826040516106d9906114e6565b60006040518083038185875af1925050503d8060008114610716576040519150601f19603f3d011682016040523d82523d6000602084013e61071b565b606091505b505090508061075f576040517f08c379a000000000000000000000000000000000000000000000000000000000815260040161075690611547565b60405180910390fd5b5050565b6000600160009054906101000a900473ffffffffffffffffffffffffffffffffffffffff1673ffffffffffffffffffffffffffffffffffffffff163373ffffffffffffffffffffffffffffffffffffffff16146107f5576040517f08c379a00000000000000000000000000000000000000000000000000000000081526004016107ec906115b3565b60405180910390fd5b600254905090565b6000600160009054906101000a900473ffffffffffffffffffffffffffffffffffffffff1673ffffffffffffffffffffffffffffffffffffffff163373ffffffffffffffffffffffffffffffffffffffff161461088f576040517f08c379a0000000000000000000000000000000000000000000000000000000008152600401610886906115b3565b60405180910390fd5b600554905090565b6000600754905090565b6000600160009054906101000a900473ffffffffffffffffffffffffffffffffffffffff1673ffffffffffffffffffffffffffffffffffffffff163373ffffffffffffffffffffffffffffffffffffffff1614610933576040517f08c379a000000000000000000000000000000000000000000000000000000000815260040161092a906115b3565b60405180910390fd5b600654905090565b600160009054906101000a900473ffffffffffffffffffffffffffffffffffffffff1673ffffffffffffffffffffffffffffffffffffffff163373ffffffffffffffffffffffffffffffffffffffff16146109cb576040517f08c379a00000000000000000000000000000000000000000000000000000000081526004016109c2906115b3565b60405180910390fd5b8060058190555050565b60055481565b600160009054906101000a900473ffffffffffffffffffffffffffffffffffffffff1673ffffffffffffffffffffffffffffffffffffffff163373ffffffffffffffffffffffffffffffffffffffff1614610a6b576040517f08c379a0000000000000000000000000000000000000000000000000000000008152600401610a62906115b3565b60405180910390fd5b8060078190555050565b6000602052806000526040600020600091509050806000015490806001015490806002018054610aa490611602565b80601f0160208091040260200160405190810160405280929190818152602001828054610ad090611602565b8015610b1d5780601f10610af257610100808354040283529160200191610b1d565b820191906000526020600020905b815481529060010190602001808311610b0057829003601f168201915b5050505050905083565b60035481565b60045481565b60025481565b60008060003373ffffffffffffffffffffffffffffffffffffffff1673ffffffffffffffffffffffffffffffffffffffff1681526020019081526020016000206001015411610bbd576040517f08c379a0000000000000000000000000000000000000000000000000000000008152600401610bb490611300565b60405180910390fd5b600754341015610c02576040517f08c379a0000000000000000000000000000000000000000000000000000000008152600401610bf9906116a5565b60405180910390fd5b610c0b33610e6d565b346000803373ffffffffffffffffffffffffffffffffffffffff1673ffffffffffffffffffffffffffffffffffffffff1681526020019081526020016000206000016000828254610c5c919061134f565b92505081905550426000803373ffffffffffffffffffffffffffffffffffffffff1673ffffffffffffffffffffffffffffffffffffffff168152602001908152602001600020600101819055503460026000828254610cbb919061134f565b92505081905550565b60065481565b6000815103610d0e576040517f08c379a0000000000000000000000000000000000000000000000000000000008152600401610d0590611711565b60405180910390fd5b6000604051806060016040528060008152602001428152602001838152509050806000803373ffffffffffffffffffffffffffffffffffffffff1673ffffffffffffffffffffffffffffffffffffffff16815260200190815260200160002060008201518160000155602082015181600101556040820151816002019081610d9691906118dd565b509050505050565b60075481565b6000806000808473ffffffffffffffffffffffffffffffffffffffff1673ffffffffffffffffffffffffffffffffffffffff1681526020019081526020016000206001015442610df49190611481565b9050600063bbf81e00826005546000808873ffffffffffffffffffffffffffffffffffffffff1673ffffffffffffffffffffffffffffffffffffffff16815260200190815260200160002060000154610e4d91906119af565b610e5791906119af565b610e619190611a20565b90508092505050919050565b6000610e7882610da4565b9050426004819055508060036000828254610e93919061134f565b92505081905550806000808473ffffffffffffffffffffffffffffffffffffffff1673ffffffffffffffffffffffffffffffffffffffff1681526020019081526020016000206000016000828254610eeb919061134f565b92505081905550426000808473ffffffffffffffffffffffffffffffffffffffff1673ffffffffffffffffffffffffffffffffffffffff168152602001908152602001600020600101819055505050565b6000819050919050565b610f4f81610f3c565b82525050565b6000602082019050610f6a6000830184610f46565b92915050565b6000604051905090565b600080fd5b600080fd5b610f8d81610f3c565b8114610f9857600080fd5b50565b600081359050610faa81610f84565b92915050565b600060208284031215610fc657610fc5610f7a565b5b6000610fd484828501610f9b565b91505092915050565b600073ffffffffffffffffffffffffffffffffffffffff82169050919050565b600061100882610fdd565b9050919050565b61101881610ffd565b811461102357600080fd5b50565b6000813590506110358161100f565b92915050565b60006020828403121561105157611050610f7a565b5b600061105f84828501611026565b91505092915050565b600081519050919050565b600082825260208201905092915050565b60005b838110156110a2578082015181840152602081019050611087565b60008484015250505050565b6000601f19601f8301169050919050565b60006110ca82611068565b6110d48185611073565b93506110e4818560208601611084565b6110ed816110ae565b840191505092915050565b600060608201905061110d6000830186610f46565b61111a6020830185610f46565b818103604083015261112c81846110bf565b9050949350505050565b600080fd5b600080fd5b7f4e487b7100000000000000000000000000000000000000000000000000000000600052604160045260246000fd5b611178826110ae565b810181811067ffffffffffffffff8211171561119757611196611140565b5b80604052505050565b60006111aa610f70565b90506111b6828261116f565b919050565b600067ffffffffffffffff8211156111d6576111d5611140565b5b6111df826110ae565b9050602081019050919050565b82818337600083830152505050565b600061120e611209846111bb565b6111a0565b90508281526020810184848401111561122a5761122961113b565b5b6112358482856111ec565b509392505050565b600082601f83011261125257611251611136565b5b81356112628482602086016111fb565b91505092915050565b60006020828403121561128157611280610f7a565b5b600082013567ffffffffffffffff81111561129f5761129e610f7f565b5b6112ab8482850161123d565b91505092915050565b7f546869732075736572206973206e6f7420726567697374657265640000000000600082015250565b60006112ea601b83611073565b91506112f5826112b4565b602082019050919050565b60006020820190508181036000830152611319816112dd565b9050919050565b7f4e487b7100000000000000000000000000000000000000000000000000000000600052601160045260246000fd5b600061135a82610f3c565b915061136583610f3c565b925082820190508082111561137d5761137c611320565b5b92915050565b7f5769746864726177616c20616d6f756e74206d7573742062652067726561746560008201527f72207468616e207a65726f000000000000000000000000000000000000000000602082015250565b60006113df602b83611073565b91506113ea82611383565b604082019050919050565b6000602082019050818103600083015261140e816113d2565b9050919050565b7f496e73756666696369656e742062616c616e6365000000000000000000000000600082015250565b600061144b601483611073565b915061145682611415565b602082019050919050565b6000602082019050818103600083015261147a8161143e565b9050919050565b600061148c82610f3c565b915061149783610f3c565b92508282039050818111156114af576114ae611320565b5b92915050565b600081905092915050565b50565b60006114d06000836114b5565b91506114db826114c0565b600082019050919050565b60006114f1826114c3565b9150819050919050565b7f5769746864726177616c206661696c6564000000000000000000000000000000600082015250565b6000611531601183611073565b915061153c826114fb565b602082019050919050565b6000602082019050818103600083015261156081611524565b9050919050565b7f63616e206f6e6c792062652063616c6c656420627920746865206f776e657200600082015250565b600061159d601f83611073565b91506115a882611567565b602082019050919050565b600060208201905081810360008301526115cc81611590565b9050919050565b7f4e487b7100000000000000000000000000000000000000000000000000000000600052602260045260246000fd5b6000600282049050600182168061161a57607f821691505b60208210810361162d5761162c6115d3565b5b50919050565b7f4465706f73697420616d6f756e742063616e206e6f74206265206c657373207460008201527f68616e206c6f776573744465706f736974416d6f756e74000000000000000000602082015250565b600061168f603783611073565b915061169a82611633565b604082019050919050565b600060208201905081810360008301526116be81611682565b9050919050565b7f4e616d65206973206e6f742070726f7669646564000000000000000000000000600082015250565b60006116fb601483611073565b9150611706826116c5565b602082019050919050565b6000602082019050818103600083015261172a816116ee565b9050919050565b60008190508160005260206000209050919050565b60006020601f8301049050919050565b600082821b905092915050565b6000600883026117937fffffffffffffffffffffffffffffffffffffffffffffffffffffffffffffffff82611756565b61179d8683611756565b95508019841693508086168417925050509392505050565b6000819050919050565b60006117da6117d56117d084610f3c565b6117b5565b610f3c565b9050919050565b6000819050919050565b6117f4836117bf565b611808611800826117e1565b848454611763565b825550505050565b600090565b61181d611810565b6118288184846117eb565b505050565b5b8181101561184c57611841600082611815565b60018101905061182e565b5050565b601f8211156118915761186281611731565b61186b84611746565b8101602085101561187a578190505b61188e61188685611746565b83018261182d565b50505b505050565b600082821c905092915050565b60006118b460001984600802611896565b1980831691505092915050565b60006118cd83836118a3565b9150826002028217905092915050565b6118e682611068565b67ffffffffffffffff8111156118ff576118fe611140565b5b6119098254611602565b611914828285611850565b600060209050601f8311600181146119475760008415611935578287015190505b61193f85826118c1565b8655506119a7565b601f19841661195586611731565b60005b8281101561197d57848901518255600182019150602085019450602081019050611958565b8683101561199a5784890151611996601f8916826118a3565b8355505b6001600288020188555050505b505050505050565b60006119ba82610f3c565b91506119c583610f3c565b92508282026119d381610f3c565b915082820484148315176119ea576119e9611320565b5b5092915050565b7f4e487b7100000000000000000000000000000000000000000000000000000000600052601260045260246000fd5b6000611a2b82610f3c565b9150611a3683610f3c565b925082611a4657611a456119f1565b5b82820490509291505056fea26469706673582212203a8224053841975b4f252108a251fa3b47c9d179c383ac8a4220bc7b780a8a8464736f6c63430008110033","opcodes":"PUSH1 0x80 PUSH1 0x40 MSTORE CALLVALUE DUP1 ISZERO PUSH2 0x10 JUMPI PUSH1 0x0 DUP1 REVERT JUMPDEST POP CALLER PUSH1 0x1 PUSH1 0x0 PUSH2 0x100 EXP DUP2 SLOAD DUP2 PUSH20 0xFFFFFFFFFFFFFFFFFFFFFFFFFFFFFFFFFFFFFFFF MUL NOT AND SWAP1 DUP4 PUSH20 0xFFFFFFFFFFFFFFFFFFFFFFFFFFFFFFFFFFFFFFFF AND MUL OR SWAP1 SSTORE POP PUSH1 0x0 PUSH1 0x2 DUP2 SWAP1 SSTORE POP PUSH1 0x0 PUSH1 0x3 DUP2 SWAP1 SSTORE POP TIMESTAMP PUSH1 0x4 DUP2 SWAP1 SSTORE POP PUSH1 0x4 PUSH1 0x5 DUP2 SWAP1 SSTORE POP PUSH1 0x0 PUSH1 0x6 DUP2 SWAP1 SSTORE POP PUSH8 0x29A2241AF62C0000 PUSH1 0x7 DUP2 SWAP1 SSTORE POP PUSH2 0x1A87 DUP1 PUSH2 0x97 PUSH1 0x0 CODECOPY PUSH1 0x0 RETURN INVALID PUSH1 0x80 PUSH1 0x40 MSTORE PUSH1 0x4 CALLDATASIZE LT PUSH2 0xFE JUMPI PUSH1 0x0 CALLDATALOAD PUSH1 0xE0 SHR DUP1 PUSH4 0x9865F1C2 GT PUSH2 0x95 JUMPI DUP1 PUSH4 0xC89F2CE4 GT PUSH2 0x64 JUMPI DUP1 PUSH4 0xC89F2CE4 EQ PUSH2 0x315 JUMPI DUP1 PUSH4 0xD0E30DB0 EQ PUSH2 0x340 JUMPI DUP1 PUSH4 0xEAAB4597 EQ PUSH2 0x34A JUMPI DUP1 PUSH4 0xF2C298BE EQ PUSH2 0x375 JUMPI DUP1 PUSH4 0xF3121800 EQ PUSH2 0x39E JUMPI PUSH2 0xFE JUMP JUMPDEST DUP1 PUSH4 0x9865F1C2 EQ PUSH2 0x257 JUMPI DUP1 PUSH4 0xA87430BA EQ PUSH2 0x280 JUMPI DUP1 PUSH4 0xBC7A36D6 EQ PUSH2 0x2BF JUMPI DUP1 PUSH4 0xC0463711 EQ PUSH2 0x2EA JUMPI PUSH2 0xFE JUMP JUMPDEST DUP1 PUSH4 0x608032ED GT PUSH2 0xD1 JUMPI DUP1 PUSH4 0x608032ED EQ PUSH2 0x1AD JUMPI DUP1 PUSH4 0x62243096 EQ PUSH2 0x1D8 JUMPI DUP1 PUSH4 0x74E7493B EQ PUSH2 0x203 JUMPI DUP1 PUSH4 0x7C3A00FD EQ PUSH2 0x22C JUMPI PUSH2 0xFE JUMP JUMPDEST DUP1 PUSH4 0x12065FE0 EQ PUSH2 0x103 JUMPI DUP1 PUSH4 0x2E1A7D4D EQ PUSH2 0x12E JUMPI DUP1 PUSH4 0x4D9B3735 EQ PUSH2 0x157 JUMPI DUP1 PUSH4 0x5257B566 EQ PUSH2 0x182 JUMPI JUMPDEST PUSH1 0x0 DUP1 REVERT JUMPDEST CALLVALUE DUP1 ISZERO PUSH2 0x10F JUMPI PUSH1 0x0 DUP1 REVERT JUMPDEST POP PUSH2 0x118 PUSH2 0x3C9 JUMP JUMPDEST PUSH1 0x40 MLOAD PUSH2 0x125 SWAP2 SWAP1 PUSH2 0xF55 JUMP JUMPDEST PUSH1 0x40 MLOAD DUP1 SWAP2 SUB SWAP1 RETURN JUMPDEST CALLVALUE DUP1 ISZERO PUSH2 0x13A JUMPI PUSH1 0x0 DUP1 REVERT JUMPDEST POP PUSH2 0x155 PUSH1 0x4 DUP1 CALLDATASIZE SUB DUP2 ADD SWAP1 PUSH2 0x150 SWAP2 SWAP1 PUSH2 0xFB0 JUMP JUMPDEST PUSH2 0x4A8 JUMP JUMPDEST STOP JUMPDEST CALLVALUE DUP1 ISZERO PUSH2 0x163 JUMPI PUSH1 0x0 DUP1 REVERT JUMPDEST POP PUSH2 0x16C PUSH2 0x763 JUMP JUMPDEST PUSH1 0x40 MLOAD PUSH2 0x179 SWAP2 SWAP1 PUSH2 0xF55 JUMP JUMPDEST PUSH1 0x40 MLOAD DUP1 SWAP2 SUB SWAP1 RETURN JUMPDEST CALLVALUE DUP1 ISZERO PUSH2 0x18E JUMPI PUSH1 0x0 DUP1 REVERT JUMPDEST POP PUSH2 0x197 PUSH2 0x7FD JUMP JUMPDEST PUSH1 0x40 MLOAD PUSH2 0x1A4 SWAP2 SWAP1 PUSH2 0xF55 JUMP JUMPDEST PUSH1 0x40 MLOAD DUP1 SWAP2 SUB SWAP1 RETURN JUMPDEST CALLVALUE DUP1 ISZERO PUSH2 0x1B9 JUMPI PUSH1 0x0 DUP1 REVERT JUMPDEST POP PUSH2 0x1C2 PUSH2 0x897 JUMP JUMPDEST PUSH1 0x40 MLOAD PUSH2 0x1CF SWAP2 SWAP1 PUSH2 0xF55 JUMP JUMPDEST PUSH1 0x40 MLOAD DUP1 SWAP2 SUB SWAP1 RETURN JUMPDEST CALLVALUE DUP1 ISZERO PUSH2 0x1E4 JUMPI PUSH1 0x0 DUP1 REVERT JUMPDEST POP PUSH2 0x1ED PUSH2 0x8A1 JUMP JUMPDEST PUSH1 0x40 MLOAD PUSH2 0x1FA SWAP2 SWAP1 PUSH2 0xF55 JUMP JUMPDEST PUSH1 0x40 MLOAD DUP1 SWAP2 SUB SWAP1 RETURN JUMPDEST CALLVALUE DUP1 ISZERO PUSH2 0x20F JUMPI PUSH1 0x0 DUP1 REVERT JUMPDEST POP PUSH2 0x22A PUSH1 0x4 DUP1 CALLDATASIZE SUB DUP2 ADD SWAP1 PUSH2 0x225 SWAP2 SWAP1 PUSH2 0xFB0 JUMP JUMPDEST PUSH2 0x93B JUMP JUMPDEST STOP JUMPDEST CALLVALUE DUP1 ISZERO PUSH2 0x238 JUMPI PUSH1 0x0 DUP1 REVERT JUMPDEST POP PUSH2 0x241 PUSH2 0x9D5 JUMP JUMPDEST PUSH1 0x40 MLOAD PUSH2 0x24E SWAP2 SWAP1 PUSH2 0xF55 JUMP JUMPDEST PUSH1 0x40 MLOAD DUP1 SWAP2 SUB SWAP1 RETURN JUMPDEST CALLVALUE DUP1 ISZERO PUSH2 0x263 JUMPI PUSH1 0x0 DUP1 REVERT JUMPDEST POP PUSH2 0x27E PUSH1 0x4 DUP1 CALLDATASIZE SUB DUP2 ADD SWAP1 PUSH2 0x279 SWAP2 SWAP1 PUSH2 0xFB0 JUMP JUMPDEST PUSH2 0x9DB JUMP JUMPDEST STOP JUMPDEST CALLVALUE DUP1 ISZERO PUSH2 0x28C JUMPI PUSH1 0x0 DUP1 REVERT JUMPDEST POP PUSH2 0x2A7 PUSH1 0x4 DUP1 CALLDATASIZE SUB DUP2 ADD SWAP1 PUSH2 0x2A2 SWAP2 SWAP1 PUSH2 0x103B JUMP JUMPDEST PUSH2 0xA75 JUMP JUMPDEST PUSH1 0x40 MLOAD PUSH2 0x2B6 SWAP4 SWAP3 SWAP2 SWAP1 PUSH2 0x10F8 JUMP JUMPDEST PUSH1 0x40 MLOAD DUP1 SWAP2 SUB SWAP1 RETURN JUMPDEST CALLVALUE DUP1 ISZERO PUSH2 0x2CB JUMPI PUSH1 0x0 DUP1 REVERT JUMPDEST POP PUSH2 0x2D4 PUSH2 0xB27 JUMP JUMPDEST PUSH1 0x40 MLOAD PUSH2 0x2E1 SWAP2 SWAP1 PUSH2 0xF55 JUMP JUMPDEST PUSH1 0x40 MLOAD DUP1 SWAP2 SUB SWAP1 RETURN JUMPDEST CALLVALUE DUP1 ISZERO PUSH2 0x2F6 JUMPI PUSH1 0x0 DUP1 REVERT JUMPDEST POP PUSH2 0x2FF PUSH2 0xB2D JUMP JUMPDEST PUSH1 0x40 MLOAD PUSH2 0x30C SWAP2 SWAP1 PUSH2 0xF55 JUMP JUMPDEST PUSH1 0x40 MLOAD DUP1 SWAP2 SUB SWAP1 RETURN JUMPDEST CALLVALUE DUP1 ISZERO PUSH2 0x321 JUMPI PUSH1 0x0 DUP1 REVERT JUMPDEST POP PUSH2 0x32A PUSH2 0xB33 JUMP JUMPDEST PUSH1 0x40 MLOAD PUSH2 0x337 SWAP2 SWAP1 PUSH2 0xF55 JUMP JUMPDEST PUSH1 0x40 MLOAD DUP1 SWAP2 SUB SWAP1 RETURN JUMPDEST PUSH2 0x348 PUSH2 0xB39 JUMP JUMPDEST STOP JUMPDEST CALLVALUE DUP1 ISZERO PUSH2 0x356 JUMPI PUSH1 0x0 DUP1 REVERT JUMPDEST POP PUSH2 0x35F PUSH2 0xCC4 JUMP JUMPDEST PUSH1 0x40 MLOAD PUSH2 0x36C SWAP2 SWAP1 PUSH2 0xF55 JUMP JUMPDEST PUSH1 0x40 MLOAD DUP1 SWAP2 SUB SWAP1 RETURN JUMPDEST CALLVALUE DUP1 ISZERO PUSH2 0x381 JUMPI PUSH1 0x0 DUP1 REVERT JUMPDEST POP PUSH2 0x39C PUSH1 0x4 DUP1 CALLDATASIZE SUB DUP2 ADD SWAP1 PUSH2 0x397 SWAP2 SWAP1 PUSH2 0x126B JUMP JUMPDEST PUSH2 0xCCA JUMP JUMPDEST STOP JUMPDEST CALLVALUE DUP1 ISZERO PUSH2 0x3AA JUMPI PUSH1 0x0 DUP1 REVERT JUMPDEST POP PUSH2 0x3B3 PUSH2 0xD9E JUMP JUMPDEST PUSH1 0x40 MLOAD PUSH2 0x3C0 SWAP2 SWAP1 PUSH2 0xF55 JUMP JUMPDEST PUSH1 0x40 MLOAD DUP1 SWAP2 SUB SWAP1 RETURN JUMPDEST PUSH1 0x0 DUP1 PUSH1 0x0 DUP1 CALLER PUSH20 0xFFFFFFFFFFFFFFFFFFFFFFFFFFFFFFFFFFFFFFFF AND PUSH20 0xFFFFFFFFFFFFFFFFFFFFFFFFFFFFFFFFFFFFFFFF AND DUP2 MSTORE PUSH1 0x20 ADD SWAP1 DUP2 MSTORE PUSH1 0x20 ADD PUSH1 0x0 KECCAK256 PUSH1 0x1 ADD SLOAD GT PUSH2 0x44E JUMPI PUSH1 0x40 MLOAD PUSH32 0x8C379A000000000000000000000000000000000000000000000000000000000 DUP2 MSTORE PUSH1 0x4 ADD PUSH2 0x445 SWAP1 PUSH2 0x1300 JUMP JUMPDEST PUSH1 0x40 MLOAD DUP1 SWAP2 SUB SWAP1 REVERT JUMPDEST PUSH2 0x457 CALLER PUSH2 0xDA4 JUMP JUMPDEST PUSH1 0x0 DUP1 CALLER PUSH20 0xFFFFFFFFFFFFFFFFFFFFFFFFFFFFFFFFFFFFFFFF AND PUSH20 0xFFFFFFFFFFFFFFFFFFFFFFFFFFFFFFFFFFFFFFFF AND DUP2 MSTORE PUSH1 0x20 ADD SWAP1 DUP2 MSTORE PUSH1 0x20 ADD PUSH1 0x0 KECCAK256 PUSH1 0x0 ADD SLOAD PUSH2 0x4A3 SWAP2 SWAP1 PUSH2 0x134F JUMP JUMPDEST SWAP1 POP SWAP1 JUMP JUMPDEST PUSH1 0x0 DUP1 PUSH1 0x0 CALLER PUSH20 0xFFFFFFFFFFFFFFFFFFFFFFFFFFFFFFFFFFFFFFFF AND PUSH20 0xFFFFFFFFFFFFFFFFFFFFFFFFFFFFFFFFFFFFFFFF AND DUP2 MSTORE PUSH1 0x20 ADD SWAP1 DUP2 MSTORE PUSH1 0x20 ADD PUSH1 0x0 KECCAK256 PUSH1 0x1 ADD SLOAD GT PUSH2 0x52C JUMPI PUSH1 0x40 MLOAD PUSH32 0x8C379A000000000000000000000000000000000000000000000000000000000 DUP2 MSTORE PUSH1 0x4 ADD PUSH2 0x523 SWAP1 PUSH2 0x1300 JUMP JUMPDEST PUSH1 0x40 MLOAD DUP1 SWAP2 SUB SWAP1 REVERT JUMPDEST PUSH1 0x0 DUP2 GT PUSH2 0x56F JUMPI PUSH1 0x40 MLOAD PUSH32 0x8C379A000000000000000000000000000000000000000000000000000000000 DUP2 MSTORE PUSH1 0x4 ADD PUSH2 0x566 SWAP1 PUSH2 0x13F5 JUMP JUMPDEST PUSH1 0x40 MLOAD DUP1 SWAP2 SUB SWAP1 REVERT JUMPDEST DUP1 PUSH1 0x0 DUP1 CALLER PUSH20 0xFFFFFFFFFFFFFFFFFFFFFFFFFFFFFFFFFFFFFFFF AND PUSH20 0xFFFFFFFFFFFFFFFFFFFFFFFFFFFFFFFFFFFFFFFF AND DUP2 MSTORE PUSH1 0x20 ADD SWAP1 DUP2 MSTORE PUSH1 0x20 ADD PUSH1 0x0 KECCAK256 PUSH1 0x0 ADD SLOAD LT ISZERO PUSH2 0x5F3 JUMPI PUSH1 0x40 MLOAD PUSH32 0x8C379A000000000000000000000000000000000000000000000000000000000 DUP2 MSTORE PUSH1 0x4 ADD PUSH2 0x5EA SWAP1 PUSH2 0x1461 JUMP JUMPDEST PUSH1 0x40 MLOAD DUP1 SWAP2 SUB SWAP1 REVERT JUMPDEST PUSH2 0x5FC CALLER PUSH2 0xE6D JUMP JUMPDEST DUP1 PUSH1 0x0 DUP1 CALLER PUSH20 0xFFFFFFFFFFFFFFFFFFFFFFFFFFFFFFFFFFFFFFFF AND PUSH20 0xFFFFFFFFFFFFFFFFFFFFFFFFFFFFFFFFFFFFFFFF AND DUP2 MSTORE PUSH1 0x20 ADD SWAP1 DUP2 MSTORE PUSH1 0x20 ADD PUSH1 0x0 KECCAK256 PUSH1 0x0 ADD PUSH1 0x0 DUP3 DUP3 SLOAD PUSH2 0x64D SWAP2 SWAP1 PUSH2 0x1481 JUMP JUMPDEST SWAP3 POP POP DUP2 SWAP1 SSTORE POP TIMESTAMP PUSH1 0x0 DUP1 CALLER PUSH20 0xFFFFFFFFFFFFFFFFFFFFFFFFFFFFFFFFFFFFFFFF AND PUSH20 0xFFFFFFFFFFFFFFFFFFFFFFFFFFFFFFFFFFFFFFFF AND DUP2 MSTORE PUSH1 0x20 ADD SWAP1 DUP2 MSTORE PUSH1 0x20 ADD PUSH1 0x0 KECCAK256 PUSH1 0x1 ADD DUP2 SWAP1 SSTORE POP DUP1 PUSH1 0x2 PUSH1 0x0 DUP3 DUP3 SLOAD PUSH2 0x6AC SWAP2 SWAP1 PUSH2 0x1481 JUMP JUMPDEST SWAP3 POP POP DUP2 SWAP1 SSTORE POP PUSH1 0x0 CALLER PUSH20 0xFFFFFFFFFFFFFFFFFFFFFFFFFFFFFFFFFFFFFFFF AND DUP3 PUSH1 0x40 MLOAD PUSH2 0x6D9 SWAP1 PUSH2 0x14E6 JUMP JUMPDEST PUSH1 0x0 PUSH1 0x40 MLOAD DUP1 DUP4 SUB DUP2 DUP6 DUP8 GAS CALL SWAP3 POP POP POP RETURNDATASIZE DUP1 PUSH1 0x0 DUP2 EQ PUSH2 0x716 JUMPI PUSH1 0x40 MLOAD SWAP2 POP PUSH1 0x1F NOT PUSH1 0x3F RETURNDATASIZE ADD AND DUP3 ADD PUSH1 0x40 MSTORE RETURNDATASIZE DUP3 MSTORE RETURNDATASIZE PUSH1 0x0 PUSH1 0x20 DUP5 ADD RETURNDATACOPY PUSH2 0x71B JUMP JUMPDEST PUSH1 0x60 SWAP2 POP JUMPDEST POP POP SWAP1 POP DUP1 PUSH2 0x75F JUMPI PUSH1 0x40 MLOAD PUSH32 0x8C379A000000000000000000000000000000000000000000000000000000000 DUP2 MSTORE PUSH1 0x4 ADD PUSH2 0x756 SWAP1 PUSH2 0x1547 JUMP JUMPDEST PUSH1 0x40 MLOAD DUP1 SWAP2 SUB SWAP1 REVERT JUMPDEST POP POP JUMP JUMPDEST PUSH1 0x0 PUSH1 0x1 PUSH1 0x0 SWAP1 SLOAD SWAP1 PUSH2 0x100 EXP SWAP1 DIV PUSH20 0xFFFFFFFFFFFFFFFFFFFFFFFFFFFFFFFFFFFFFFFF AND PUSH20 0xFFFFFFFFFFFFFFFFFFFFFFFFFFFFFFFFFFFFFFFF AND CALLER PUSH20 0xFFFFFFFFFFFFFFFFFFFFFFFFFFFFFFFFFFFFFFFF AND EQ PUSH2 0x7F5 JUMPI PUSH1 0x40 MLOAD PUSH32 0x8C379A000000000000000000000000000000000000000000000000000000000 DUP2 MSTORE PUSH1 0x4 ADD PUSH2 0x7EC SWAP1 PUSH2 0x15B3 JUMP JUMPDEST PUSH1 0x40 MLOAD DUP1 SWAP2 SUB SWAP1 REVERT JUMPDEST PUSH1 0x2 SLOAD SWAP1 POP SWAP1 JUMP JUMPDEST PUSH1 0x0 PUSH1 0x1 PUSH1 0x0 SWAP1 SLOAD SWAP1 PUSH2 0x100 EXP SWAP1 DIV PUSH20 0xFFFFFFFFFFFFFFFFFFFFFFFFFFFFFFFFFFFFFFFF AND PUSH20 0xFFFFFFFFFFFFFFFFFFFFFFFFFFFFFFFFFFFFFFFF AND CALLER PUSH20 0xFFFFFFFFFFFFFFFFFFFFFFFFFFFFFFFFFFFFFFFF AND EQ PUSH2 0x88F JUMPI PUSH1 0x40 MLOAD PUSH32 0x8C379A000000000000000000000000000000000000000000000000000000000 DUP2 MSTORE PUSH1 0x4 ADD PUSH2 0x886 SWAP1 PUSH2 0x15B3 JUMP JUMPDEST PUSH1 0x40 MLOAD DUP1 SWAP2 SUB SWAP1 REVERT JUMPDEST PUSH1 0x5 SLOAD SWAP1 POP SWAP1 JUMP JUMPDEST PUSH1 0x0 PUSH1 0x7 SLOAD SWAP1 POP SWAP1 JUMP JUMPDEST PUSH1 0x0 PUSH1 0x1 PUSH1 0x0 SWAP1 SLOAD SWAP1 PUSH2 0x100 EXP SWAP1 DIV PUSH20 0xFFFFFFFFFFFFFFFFFFFFFFFFFFFFFFFFFFFFFFFF AND PUSH20 0xFFFFFFFFFFFFFFFFFFFFFFFFFFFFFFFFFFFFFFFF AND CALLER PUSH20 0xFFFFFFFFFFFFFFFFFFFFFFFFFFFFFFFFFFFFFFFF AND EQ PUSH2 0x933 JUMPI PUSH1 0x40 MLOAD PUSH32 0x8C379A000000000000000000000000000000000000000000000000000000000 DUP2 MSTORE PUSH1 0x4 ADD PUSH2 0x92A SWAP1 PUSH2 0x15B3 JUMP JUMPDEST PUSH1 0x40 MLOAD DUP1 SWAP2 SUB SWAP1 REVERT JUMPDEST PUSH1 0x6 SLOAD SWAP1 POP SWAP1 JUMP JUMPDEST PUSH1 0x1 PUSH1 0x0 SWAP1 SLOAD SWAP1 PUSH2 0x100 EXP SWAP1 DIV PUSH20 0xFFFFFFFFFFFFFFFFFFFFFFFFFFFFFFFFFFFFFFFF AND PUSH20 0xFFFFFFFFFFFFFFFFFFFFFFFFFFFFFFFFFFFFFFFF AND CALLER PUSH20 0xFFFFFFFFFFFFFFFFFFFFFFFFFFFFFFFFFFFFFFFF AND EQ PUSH2 0x9CB JUMPI PUSH1 0x40 MLOAD PUSH32 0x8C379A000000000000000000000000000000000000000000000000000000000 DUP2 MSTORE PUSH1 0x4 ADD PUSH2 0x9C2 SWAP1 PUSH2 0x15B3 JUMP JUMPDEST PUSH1 0x40 MLOAD DUP1 SWAP2 SUB SWAP1 REVERT JUMPDEST DUP1 PUSH1 0x5 DUP2 SWAP1 SSTORE POP POP JUMP JUMPDEST PUSH1 0x5 SLOAD DUP2 JUMP JUMPDEST PUSH1 0x1 PUSH1 0x0 SWAP1 SLOAD SWAP1 PUSH2 0x100 EXP SWAP1 DIV PUSH20 0xFFFFFFFFFFFFFFFFFFFFFFFFFFFFFFFFFFFFFFFF AND PUSH20 0xFFFFFFFFFFFFFFFFFFFFFFFFFFFFFFFFFFFFFFFF AND CALLER PUSH20 0xFFFFFFFFFFFFFFFFFFFFFFFFFFFFFFFFFFFFFFFF AND EQ PUSH2 0xA6B JUMPI PUSH1 0x40 MLOAD PUSH32 0x8C379A000000000000000000000000000000000000000000000000000000000 DUP2 MSTORE PUSH1 0x4 ADD PUSH2 0xA62 SWAP1 PUSH2 0x15B3 JUMP JUMPDEST PUSH1 0x40 MLOAD DUP1 SWAP2 SUB SWAP1 REVERT JUMPDEST DUP1 PUSH1 0x7 DUP2 SWAP1 SSTORE POP POP JUMP JUMPDEST PUSH1 0x0 PUSH1 0x20 MSTORE DUP1 PUSH1 0x0 MSTORE PUSH1 0x40 PUSH1 0x0 KECCAK256 PUSH1 0x0 SWAP2 POP SWAP1 POP DUP1 PUSH1 0x0 ADD SLOAD SWAP1 DUP1 PUSH1 0x1 ADD SLOAD SWAP1 DUP1 PUSH1 0x2 ADD DUP1 SLOAD PUSH2 0xAA4 SWAP1 PUSH2 0x1602 JUMP JUMPDEST DUP1 PUSH1 0x1F ADD PUSH1 0x20 DUP1 SWAP2 DIV MUL PUSH1 0x20 ADD PUSH1 0x40 MLOAD SWAP1 DUP2 ADD PUSH1 0x40 MSTORE DUP1 SWAP3 SWAP2 SWAP1 DUP2 DUP2 MSTORE PUSH1 0x20 ADD DUP3 DUP1 SLOAD PUSH2 0xAD0 SWAP1 PUSH2 0x1602 JUMP JUMPDEST DUP1 ISZERO PUSH2 0xB1D JUMPI DUP1 PUSH1 0x1F LT PUSH2 0xAF2 JUMPI PUSH2 0x100 DUP1 DUP4 SLOAD DIV MUL DUP4 MSTORE SWAP2 PUSH1 0x20 ADD SWAP2 PUSH2 0xB1D JUMP JUMPDEST DUP3 ADD SWAP2 SWAP1 PUSH1 0x0 MSTORE PUSH1 0x20 PUSH1 0x0 KECCAK256 SWAP1 JUMPDEST DUP2 SLOAD DUP2 MSTORE SWAP1 PUSH1 0x1 ADD SWAP1 PUSH1 0x20 ADD DUP1 DUP4 GT PUSH2 0xB00 JUMPI DUP3 SWAP1 SUB PUSH1 0x1F AND DUP3 ADD SWAP2 JUMPDEST POP POP POP POP POP SWAP1 POP DUP4 JUMP JUMPDEST PUSH1 0x3 SLOAD DUP2 JUMP JUMPDEST PUSH1 0x4 SLOAD DUP2 JUMP JUMPDEST PUSH1 0x2 SLOAD DUP2 JUMP JUMPDEST PUSH1 0x0 DUP1 PUSH1 0x0 CALLER PUSH20 0xFFFFFFFFFFFFFFFFFFFFFFFFFFFFFFFFFFFFFFFF AND PUSH20 0xFFFFFFFFFFFFFFFFFFFFFFFFFFFFFFFFFFFFFFFF AND DUP2 MSTORE PUSH1 0x20 ADD SWAP1 DUP2 MSTORE PUSH1 0x20 ADD PUSH1 0x0 KECCAK256 PUSH1 0x1 ADD SLOAD GT PUSH2 0xBBD JUMPI PUSH1 0x40 MLOAD PUSH32 0x8C379A000000000000000000000000000000000000000000000000000000000 DUP2 MSTORE PUSH1 0x4 ADD PUSH2 0xBB4 SWAP1 PUSH2 0x1300 JUMP JUMPDEST PUSH1 0x40 MLOAD DUP1 SWAP2 SUB SWAP1 REVERT JUMPDEST PUSH1 0x7 SLOAD CALLVALUE LT ISZERO PUSH2 0xC02 JUMPI PUSH1 0x40 MLOAD PUSH32 0x8C379A000000000000000000000000000000000000000000000000000000000 DUP2 MSTORE PUSH1 0x4 ADD PUSH2 0xBF9 SWAP1 PUSH2 0x16A5 JUMP JUMPDEST PUSH1 0x40 MLOAD DUP1 SWAP2 SUB SWAP1 REVERT JUMPDEST PUSH2 0xC0B CALLER PUSH2 0xE6D JUMP JUMPDEST CALLVALUE PUSH1 0x0 DUP1 CALLER PUSH20 0xFFFFFFFFFFFFFFFFFFFFFFFFFFFFFFFFFFFFFFFF AND PUSH20 0xFFFFFFFFFFFFFFFFFFFFFFFFFFFFFFFFFFFFFFFF AND DUP2 MSTORE PUSH1 0x20 ADD SWAP1 DUP2 MSTORE PUSH1 0x20 ADD PUSH1 0x0 KECCAK256 PUSH1 0x0 ADD PUSH1 0x0 DUP3 DUP3 SLOAD PUSH2 0xC5C SWAP2 SWAP1 PUSH2 0x134F JUMP JUMPDEST SWAP3 POP POP DUP2 SWAP1 SSTORE POP TIMESTAMP PUSH1 0x0 DUP1 CALLER PUSH20 0xFFFFFFFFFFFFFFFFFFFFFFFFFFFFFFFFFFFFFFFF AND PUSH20 0xFFFFFFFFFFFFFFFFFFFFFFFFFFFFFFFFFFFFFFFF AND DUP2 MSTORE PUSH1 0x20 ADD SWAP1 DUP2 MSTORE PUSH1 0x20 ADD PUSH1 0x0 KECCAK256 PUSH1 0x1 ADD DUP2 SWAP1 SSTORE POP CALLVALUE PUSH1 0x2 PUSH1 0x0 DUP3 DUP3 SLOAD PUSH2 0xCBB SWAP2 SWAP1 PUSH2 0x134F JUMP JUMPDEST SWAP3 POP POP DUP2 SWAP1 SSTORE POP JUMP JUMPDEST PUSH1 0x6 SLOAD DUP2 JUMP JUMPDEST PUSH1 0x0 DUP2 MLOAD SUB PUSH2 0xD0E JUMPI PUSH1 0x40 MLOAD PUSH32 0x8C379A000000000000000000000000000000000000000000000000000000000 DUP2 MSTORE PUSH1 0x4 ADD PUSH2 0xD05 SWAP1 PUSH2 0x1711 JUMP JUMPDEST PUSH1 0x40 MLOAD DUP1 SWAP2 SUB SWAP1 REVERT JUMPDEST PUSH1 0x0 PUSH1 0x40 MLOAD DUP1 PUSH1 0x60 ADD PUSH1 0x40 MSTORE DUP1 PUSH1 0x0 DUP2 MSTORE PUSH1 0x20 ADD TIMESTAMP DUP2 MSTORE PUSH1 0x20 ADD DUP4 DUP2 MSTORE POP SWAP1 POP DUP1 PUSH1 0x0 DUP1 CALLER PUSH20 0xFFFFFFFFFFFFFFFFFFFFFFFFFFFFFFFFFFFFFFFF AND PUSH20 0xFFFFFFFFFFFFFFFFFFFFFFFFFFFFFFFFFFFFFFFF AND DUP2 MSTORE PUSH1 0x20 ADD SWAP1 DUP2 MSTORE PUSH1 0x20 ADD PUSH1 0x0 KECCAK256 PUSH1 0x0 DUP3 ADD MLOAD DUP2 PUSH1 0x0 ADD SSTORE PUSH1 0x20 DUP3 ADD MLOAD DUP2 PUSH1 0x1 ADD SSTORE PUSH1 0x40 DUP3 ADD MLOAD DUP2 PUSH1 0x2 ADD SWAP1 DUP2 PUSH2 0xD96 SWAP2 SWAP1 PUSH2 0x18DD JUMP JUMPDEST POP SWAP1 POP POP POP POP JUMP JUMPDEST PUSH1 0x7 SLOAD DUP2 JUMP JUMPDEST PUSH1 0x0 DUP1 PUSH1 0x0 DUP1 DUP5 PUSH20 0xFFFFFFFFFFFFFFFFFFFFFFFFFFFFFFFFFFFFFFFF AND PUSH20 0xFFFFFFFFFFFFFFFFFFFFFFFFFFFFFFFFFFFFFFFF AND DUP2 MSTORE PUSH1 0x20 ADD SWAP1 DUP2 MSTORE PUSH1 0x20 ADD PUSH1 0x0 KECCAK256 PUSH1 0x1 ADD SLOAD TIMESTAMP PUSH2 0xDF4 SWAP2 SWAP1 PUSH2 0x1481 JUMP JUMPDEST SWAP1 POP PUSH1 0x0 PUSH4 0xBBF81E00 DUP3 PUSH1 0x5 SLOAD PUSH1 0x0 DUP1 DUP9 PUSH20 0xFFFFFFFFFFFFFFFFFFFFFFFFFFFFFFFFFFFFFFFF AND PUSH20 0xFFFFFFFFFFFFFFFFFFFFFFFFFFFFFFFFFFFFFFFF AND DUP2 MSTORE PUSH1 0x20 ADD SWAP1 DUP2 MSTORE PUSH1 0x20 ADD PUSH1 0x0 KECCAK256 PUSH1 0x0 ADD SLOAD PUSH2 0xE4D SWAP2 SWAP1 PUSH2 0x19AF JUMP JUMPDEST PUSH2 0xE57 SWAP2 SWAP1 PUSH2 0x19AF JUMP JUMPDEST PUSH2 0xE61 SWAP2 SWAP1 PUSH2 0x1A20 JUMP JUMPDEST SWAP1 POP DUP1 SWAP3 POP POP POP SWAP2 SWAP1 POP JUMP JUMPDEST PUSH1 0x0 PUSH2 0xE78 DUP3 PUSH2 0xDA4 JUMP JUMPDEST SWAP1 POP TIMESTAMP PUSH1 0x4 DUP2 SWAP1 SSTORE POP DUP1 PUSH1 0x3 PUSH1 0x0 DUP3 DUP3 SLOAD PUSH2 0xE93 SWAP2 SWAP1 PUSH2 0x134F JUMP JUMPDEST SWAP3 POP POP DUP2 SWAP1 SSTORE POP DUP1 PUSH1 0x0 DUP1 DUP5 PUSH20 0xFFFFFFFFFFFFFFFFFFFFFFFFFFFFFFFFFFFFFFFF AND PUSH20 0xFFFFFFFFFFFFFFFFFFFFFFFFFFFFFFFFFFFFFFFF AND DUP2 MSTORE PUSH1 0x20 ADD SWAP1 DUP2 MSTORE PUSH1 0x20 ADD PUSH1 0x0 KECCAK256 PUSH1 0x0 ADD PUSH1 0x0 DUP3 DUP3 SLOAD PUSH2 0xEEB SWAP2 SWAP1 PUSH2 0x134F JUMP JUMPDEST SWAP3 POP POP DUP2 SWAP1 SSTORE POP TIMESTAMP PUSH1 0x0 DUP1 DUP5 PUSH20 0xFFFFFFFFFFFFFFFFFFFFFFFFFFFFFFFFFFFFFFFF AND PUSH20 0xFFFFFFFFFFFFFFFFFFFFFFFFFFFFFFFFFFFFFFFF AND DUP2 MSTORE PUSH1 0x20 ADD SWAP1 DUP2 MSTORE PUSH1 0x20 ADD PUSH1 0x0 KECCAK256 PUSH1 0x1 ADD DUP2 SWAP1 SSTORE POP POP POP JUMP JUMPDEST PUSH1 0x0 DUP2 SWAP1 POP SWAP2 SWAP1 POP JUMP JUMPDEST PUSH2 0xF4F DUP2 PUSH2 0xF3C JUMP JUMPDEST DUP3 MSTORE POP POP JUMP JUMPDEST PUSH1 0x0 PUSH1 0x20 DUP3 ADD SWAP1 POP PUSH2 0xF6A PUSH1 0x0 DUP4 ADD DUP5 PUSH2 0xF46 JUMP JUMPDEST SWAP3 SWAP2 POP POP JUMP JUMPDEST PUSH1 0x0 PUSH1 0x40 MLOAD SWAP1 POP SWAP1 JUMP JUMPDEST PUSH1 0x0 DUP1 REVERT JUMPDEST PUSH1 0x0 DUP1 REVERT JUMPDEST PUSH2 0xF8D DUP2 PUSH2 0xF3C JUMP JUMPDEST DUP2 EQ PUSH2 0xF98 JUMPI PUSH1 0x0 DUP1 REVERT JUMPDEST POP JUMP JUMPDEST PUSH1 0x0 DUP2 CALLDATALOAD SWAP1 POP PUSH2 0xFAA DUP2 PUSH2 0xF84 JUMP JUMPDEST SWAP3 SWAP2 POP POP JUMP JUMPDEST PUSH1 0x0 PUSH1 0x20 DUP3 DUP5 SUB SLT ISZERO PUSH2 0xFC6 JUMPI PUSH2 0xFC5 PUSH2 0xF7A JUMP JUMPDEST JUMPDEST PUSH1 0x0 PUSH2 0xFD4 DUP5 DUP3 DUP6 ADD PUSH2 0xF9B JUMP JUMPDEST SWAP2 POP POP SWAP3 SWAP2 POP POP JUMP JUMPDEST PUSH1 0x0 PUSH20 0xFFFFFFFFFFFFFFFFFFFFFFFFFFFFFFFFFFFFFFFF DUP3 AND SWAP1 POP SWAP2 SWAP1 POP JUMP JUMPDEST PUSH1 0x0 PUSH2 0x1008 DUP3 PUSH2 0xFDD JUMP JUMPDEST SWAP1 POP SWAP2 SWAP1 POP JUMP JUMPDEST PUSH2 0x1018 DUP2 PUSH2 0xFFD JUMP JUMPDEST DUP2 EQ PUSH2 0x1023 JUMPI PUSH1 0x0 DUP1 REVERT JUMPDEST POP JUMP JUMPDEST PUSH1 0x0 DUP2 CALLDATALOAD SWAP1 POP PUSH2 0x1035 DUP2 PUSH2 0x100F JUMP JUMPDEST SWAP3 SWAP2 POP POP JUMP JUMPDEST PUSH1 0x0 PUSH1 0x20 DUP3 DUP5 SUB SLT ISZERO PUSH2 0x1051 JUMPI PUSH2 0x1050 PUSH2 0xF7A JUMP JUMPDEST JUMPDEST PUSH1 0x0 PUSH2 0x105F DUP5 DUP3 DUP6 ADD PUSH2 0x1026 JUMP JUMPDEST SWAP2 POP POP SWAP3 SWAP2 POP POP JUMP JUMPDEST PUSH1 0x0 DUP2 MLOAD SWAP1 POP SWAP2 SWAP1 POP JUMP JUMPDEST PUSH1 0x0 DUP3 DUP3 MSTORE PUSH1 0x20 DUP3 ADD SWAP1 POP SWAP3 SWAP2 POP POP JUMP JUMPDEST PUSH1 0x0 JUMPDEST DUP4 DUP2 LT ISZERO PUSH2 0x10A2 JUMPI DUP1 DUP3 ADD MLOAD DUP2 DUP5 ADD MSTORE PUSH1 0x20 DUP2 ADD SWAP1 POP PUSH2 0x1087 JUMP JUMPDEST PUSH1 0x0 DUP5 DUP5 ADD MSTORE POP POP POP POP JUMP JUMPDEST PUSH1 0x0 PUSH1 0x1F NOT PUSH1 0x1F DUP4 ADD AND SWAP1 POP SWAP2 SWAP1 POP JUMP JUMPDEST PUSH1 0x0 PUSH2 0x10CA DUP3 PUSH2 0x1068 JUMP JUMPDEST PUSH2 0x10D4 DUP2 DUP6 PUSH2 0x1073 JUMP JUMPDEST SWAP4 POP PUSH2 0x10E4 DUP2 DUP6 PUSH1 0x20 DUP7 ADD PUSH2 0x1084 JUMP JUMPDEST PUSH2 0x10ED DUP2 PUSH2 0x10AE JUMP JUMPDEST DUP5 ADD SWAP2 POP POP SWAP3 SWAP2 POP POP JUMP JUMPDEST PUSH1 0x0 PUSH1 0x60 DUP3 ADD SWAP1 POP PUSH2 0x110D PUSH1 0x0 DUP4 ADD DUP7 PUSH2 0xF46 JUMP JUMPDEST PUSH2 0x111A PUSH1 0x20 DUP4 ADD DUP6 PUSH2 0xF46 JUMP JUMPDEST DUP2 DUP2 SUB PUSH1 0x40 DUP4 ADD MSTORE PUSH2 0x112C DUP2 DUP5 PUSH2 0x10BF JUMP JUMPDEST SWAP1 POP SWAP5 SWAP4 POP POP POP POP JUMP JUMPDEST PUSH1 0x0 DUP1 REVERT JUMPDEST PUSH1 0x0 DUP1 REVERT JUMPDEST PUSH32 0x4E487B7100000000000000000000000000000000000000000000000000000000 PUSH1 0x0 MSTORE PUSH1 0x41 PUSH1 0x4 MSTORE PUSH1 0x24 PUSH1 0x0 REVERT JUMPDEST PUSH2 0x1178 DUP3 PUSH2 0x10AE JUMP JUMPDEST DUP2 ADD DUP2 DUP2 LT PUSH8 0xFFFFFFFFFFFFFFFF DUP3 GT OR ISZERO PUSH2 0x1197 JUMPI PUSH2 0x1196 PUSH2 0x1140 JUMP JUMPDEST JUMPDEST DUP1 PUSH1 0x40 MSTORE POP POP POP JUMP JUMPDEST PUSH1 0x0 PUSH2 0x11AA PUSH2 0xF70 JUMP JUMPDEST SWAP1 POP PUSH2 0x11B6 DUP3 DUP3 PUSH2 0x116F JUMP JUMPDEST SWAP2 SWAP1 POP JUMP JUMPDEST PUSH1 0x0 PUSH8 0xFFFFFFFFFFFFFFFF DUP3 GT ISZERO PUSH2 0x11D6 JUMPI PUSH2 0x11D5 PUSH2 0x1140 JUMP JUMPDEST JUMPDEST PUSH2 0x11DF DUP3 PUSH2 0x10AE JUMP JUMPDEST SWAP1 POP PUSH1 0x20 DUP2 ADD SWAP1 POP SWAP2 SWAP1 POP JUMP JUMPDEST DUP3 DUP2 DUP4 CALLDATACOPY PUSH1 0x0 DUP4 DUP4 ADD MSTORE POP POP POP JUMP JUMPDEST PUSH1 0x0 PUSH2 0x120E PUSH2 0x1209 DUP5 PUSH2 0x11BB JUMP JUMPDEST PUSH2 0x11A0 JUMP JUMPDEST SWAP1 POP DUP3 DUP2 MSTORE PUSH1 0x20 DUP2 ADD DUP5 DUP5 DUP5 ADD GT ISZERO PUSH2 0x122A JUMPI PUSH2 0x1229 PUSH2 0x113B JUMP JUMPDEST JUMPDEST PUSH2 0x1235 DUP5 DUP3 DUP6 PUSH2 0x11EC JUMP JUMPDEST POP SWAP4 SWAP3 POP POP POP JUMP JUMPDEST PUSH1 0x0 DUP3 PUSH1 0x1F DUP4 ADD SLT PUSH2 0x1252 JUMPI PUSH2 0x1251 PUSH2 0x1136 JUMP JUMPDEST JUMPDEST DUP2 CALLDATALOAD PUSH2 0x1262 DUP5 DUP3 PUSH1 0x20 DUP7 ADD PUSH2 0x11FB JUMP JUMPDEST SWAP2 POP POP SWAP3 SWAP2 POP POP JUMP JUMPDEST PUSH1 0x0 PUSH1 0x20 DUP3 DUP5 SUB SLT ISZERO PUSH2 0x1281 JUMPI PUSH2 0x1280 PUSH2 0xF7A JUMP JUMPDEST JUMPDEST PUSH1 0x0 DUP3 ADD CALLDATALOAD PUSH8 0xFFFFFFFFFFFFFFFF DUP2 GT ISZERO PUSH2 0x129F JUMPI PUSH2 0x129E PUSH2 0xF7F JUMP JUMPDEST JUMPDEST PUSH2 0x12AB DUP5 DUP3 DUP6 ADD PUSH2 0x123D JUMP JUMPDEST SWAP2 POP POP SWAP3 SWAP2 POP POP JUMP JUMPDEST PUSH32 0x546869732075736572206973206E6F7420726567697374657265640000000000 PUSH1 0x0 DUP3 ADD MSTORE POP JUMP JUMPDEST PUSH1 0x0 PUSH2 0x12EA PUSH1 0x1B DUP4 PUSH2 0x1073 JUMP JUMPDEST SWAP2 POP PUSH2 0x12F5 DUP3 PUSH2 0x12B4 JUMP JUMPDEST PUSH1 0x20 DUP3 ADD SWAP1 POP SWAP2 SWAP1 POP JUMP JUMPDEST PUSH1 0x0 PUSH1 0x20 DUP3 ADD SWAP1 POP DUP2 DUP2 SUB PUSH1 0x0 DUP4 ADD MSTORE PUSH2 0x1319 DUP2 PUSH2 0x12DD JUMP JUMPDEST SWAP1 POP SWAP2 SWAP1 POP JUMP JUMPDEST PUSH32 0x4E487B7100000000000000000000000000000000000000000000000000000000 PUSH1 0x0 MSTORE PUSH1 0x11 PUSH1 0x4 MSTORE PUSH1 0x24 PUSH1 0x0 REVERT JUMPDEST PUSH1 0x0 PUSH2 0x135A DUP3 PUSH2 0xF3C JUMP JUMPDEST SWAP2 POP PUSH2 0x1365 DUP4 PUSH2 0xF3C JUMP JUMPDEST SWAP3 POP DUP3 DUP3 ADD SWAP1 POP DUP1 DUP3 GT ISZERO PUSH2 0x137D JUMPI PUSH2 0x137C PUSH2 0x1320 JUMP JUMPDEST JUMPDEST SWAP3 SWAP2 POP POP JUMP JUMPDEST PUSH32 0x5769746864726177616C20616D6F756E74206D75737420626520677265617465 PUSH1 0x0 DUP3 ADD MSTORE PUSH32 0x72207468616E207A65726F000000000000000000000000000000000000000000 PUSH1 0x20 DUP3 ADD MSTORE POP JUMP JUMPDEST PUSH1 0x0 PUSH2 0x13DF PUSH1 0x2B DUP4 PUSH2 0x1073 JUMP JUMPDEST SWAP2 POP PUSH2 0x13EA DUP3 PUSH2 0x1383 JUMP JUMPDEST PUSH1 0x40 DUP3 ADD SWAP1 POP SWAP2 SWAP1 POP JUMP JUMPDEST PUSH1 0x0 PUSH1 0x20 DUP3 ADD SWAP1 POP DUP2 DUP2 SUB PUSH1 0x0 DUP4 ADD MSTORE PUSH2 0x140E DUP2 PUSH2 0x13D2 JUMP JUMPDEST SWAP1 POP SWAP2 SWAP1 POP JUMP JUMPDEST PUSH32 0x496E73756666696369656E742062616C616E6365000000000000000000000000 PUSH1 0x0 DUP3 ADD MSTORE POP JUMP JUMPDEST PUSH1 0x0 PUSH2 0x144B PUSH1 0x14 DUP4 PUSH2 0x1073 JUMP JUMPDEST SWAP2 POP PUSH2 0x1456 DUP3 PUSH2 0x1415 JUMP JUMPDEST PUSH1 0x20 DUP3 ADD SWAP1 POP SWAP2 SWAP1 POP JUMP JUMPDEST PUSH1 0x0 PUSH1 0x20 DUP3 ADD SWAP1 POP DUP2 DUP2 SUB PUSH1 0x0 DUP4 ADD MSTORE PUSH2 0x147A DUP2 PUSH2 0x143E JUMP JUMPDEST SWAP1 POP SWAP2 SWAP1 POP JUMP JUMPDEST PUSH1 0x0 PUSH2 0x148C DUP3 PUSH2 0xF3C JUMP JUMPDEST SWAP2 POP PUSH2 0x1497 DUP4 PUSH2 0xF3C JUMP JUMPDEST SWAP3 POP DUP3 DUP3 SUB SWAP1 POP DUP2 DUP2 GT ISZERO PUSH2 0x14AF JUMPI PUSH2 0x14AE PUSH2 0x1320 JUMP JUMPDEST JUMPDEST SWAP3 SWAP2 POP POP JUMP JUMPDEST PUSH1 0x0 DUP2 SWAP1 POP SWAP3 SWAP2 POP POP JUMP JUMPDEST POP JUMP JUMPDEST PUSH1 0x0 PUSH2 0x14D0 PUSH1 0x0 DUP4 PUSH2 0x14B5 JUMP JUMPDEST SWAP2 POP PUSH2 0x14DB DUP3 PUSH2 0x14C0 JUMP JUMPDEST PUSH1 0x0 DUP3 ADD SWAP1 POP SWAP2 SWAP1 POP JUMP JUMPDEST PUSH1 0x0 PUSH2 0x14F1 DUP3 PUSH2 0x14C3 JUMP JUMPDEST SWAP2 POP DUP2 SWAP1 POP SWAP2 SWAP1 POP JUMP JUMPDEST PUSH32 0x5769746864726177616C206661696C6564000000000000000000000000000000 PUSH1 0x0 DUP3 ADD MSTORE POP JUMP JUMPDEST PUSH1 0x0 PUSH2 0x1531 PUSH1 0x11 DUP4 PUSH2 0x1073 JUMP JUMPDEST SWAP2 POP PUSH2 0x153C DUP3 PUSH2 0x14FB JUMP JUMPDEST PUSH1 0x20 DUP3 ADD SWAP1 POP SWAP2 SWAP1 POP JUMP JUMPDEST PUSH1 0x0 PUSH1 0x20 DUP3 ADD SWAP1 POP DUP2 DUP2 SUB PUSH1 0x0 DUP4 ADD MSTORE PUSH2 0x1560 DUP2 PUSH2 0x1524 JUMP JUMPDEST SWAP1 POP SWAP2 SWAP1 POP JUMP JUMPDEST PUSH32 0x63616E206F6E6C792062652063616C6C656420627920746865206F776E657200 PUSH1 0x0 DUP3 ADD MSTORE POP JUMP JUMPDEST PUSH1 0x0 PUSH2 0x159D PUSH1 0x1F DUP4 PUSH2 0x1073 JUMP JUMPDEST SWAP2 POP PUSH2 0x15A8 DUP3 PUSH2 0x1567 JUMP JUMPDEST PUSH1 0x20 DUP3 ADD SWAP1 POP SWAP2 SWAP1 POP JUMP JUMPDEST PUSH1 0x0 PUSH1 0x20 DUP3 ADD SWAP1 POP DUP2 DUP2 SUB PUSH1 0x0 DUP4 ADD MSTORE PUSH2 0x15CC DUP2 PUSH2 0x1590 JUMP JUMPDEST SWAP1 POP SWAP2 SWAP1 POP JUMP JUMPDEST PUSH32 0x4E487B7100000000000000000000000000000000000000000000000000000000 PUSH1 0x0 MSTORE PUSH1 0x22 PUSH1 0x4 MSTORE PUSH1 0x24 PUSH1 0x0 REVERT JUMPDEST PUSH1 0x0 PUSH1 0x2 DUP3 DIV SWAP1 POP PUSH1 0x1 DUP3 AND DUP1 PUSH2 0x161A JUMPI PUSH1 0x7F DUP3 AND SWAP2 POP JUMPDEST PUSH1 0x20 DUP3 LT DUP2 SUB PUSH2 0x162D JUMPI PUSH2 0x162C PUSH2 0x15D3 JUMP JUMPDEST JUMPDEST POP SWAP2 SWAP1 POP JUMP JUMPDEST PUSH32 0x4465706F73697420616D6F756E742063616E206E6F74206265206C6573732074 PUSH1 0x0 DUP3 ADD MSTORE PUSH32 0x68616E206C6F776573744465706F736974416D6F756E74000000000000000000 PUSH1 0x20 DUP3 ADD MSTORE POP JUMP JUMPDEST PUSH1 0x0 PUSH2 0x168F PUSH1 0x37 DUP4 PUSH2 0x1073 JUMP JUMPDEST SWAP2 POP PUSH2 0x169A DUP3 PUSH2 0x1633 JUMP JUMPDEST PUSH1 0x40 DUP3 ADD SWAP1 POP SWAP2 SWAP1 POP JUMP JUMPDEST PUSH1 0x0 PUSH1 0x20 DUP3 ADD SWAP1 POP DUP2 DUP2 SUB PUSH1 0x0 DUP4 ADD MSTORE PUSH2 0x16BE DUP2 PUSH2 0x1682 JUMP JUMPDEST SWAP1 POP SWAP2 SWAP1 POP JUMP JUMPDEST PUSH32 0x4E616D65206973206E6F742070726F7669646564000000000000000000000000 PUSH1 0x0 DUP3 ADD MSTORE POP JUMP JUMPDEST PUSH1 0x0 PUSH2 0x16FB PUSH1 0x14 DUP4 PUSH2 0x1073 JUMP JUMPDEST SWAP2 POP PUSH2 0x1706 DUP3 PUSH2 0x16C5 JUMP JUMPDEST PUSH1 0x20 DUP3 ADD SWAP1 POP SWAP2 SWAP1 POP JUMP JUMPDEST PUSH1 0x0 PUSH1 0x20 DUP3 ADD SWAP1 POP DUP2 DUP2 SUB PUSH1 0x0 DUP4 ADD MSTORE PUSH2 0x172A DUP2 PUSH2 0x16EE JUMP JUMPDEST SWAP1 POP SWAP2 SWAP1 POP JUMP JUMPDEST PUSH1 0x0 DUP2 SWAP1 POP DUP2 PUSH1 0x0 MSTORE PUSH1 0x20 PUSH1 0x0 KECCAK256 SWAP1 POP SWAP2 SWAP1 POP JUMP JUMPDEST PUSH1 0x0 PUSH1 0x20 PUSH1 0x1F DUP4 ADD DIV SWAP1 POP SWAP2 SWAP1 POP JUMP JUMPDEST PUSH1 0x0 DUP3 DUP3 SHL SWAP1 POP SWAP3 SWAP2 POP POP JUMP JUMPDEST PUSH1 0x0 PUSH1 0x8 DUP4 MUL PUSH2 0x1793 PUSH32 0xFFFFFFFFFFFFFFFFFFFFFFFFFFFFFFFFFFFFFFFFFFFFFFFFFFFFFFFFFFFFFFFF DUP3 PUSH2 0x1756 JUMP JUMPDEST PUSH2 0x179D DUP7 DUP4 PUSH2 0x1756 JUMP JUMPDEST SWAP6 POP DUP1 NOT DUP5 AND SWAP4 POP DUP1 DUP7 AND DUP5 OR SWAP3 POP POP POP SWAP4 SWAP3 POP POP POP JUMP JUMPDEST PUSH1 0x0 DUP2 SWAP1 POP SWAP2 SWAP1 POP JUMP JUMPDEST PUSH1 0x0 PUSH2 0x17DA PUSH2 0x17D5 PUSH2 0x17D0 DUP5 PUSH2 0xF3C JUMP JUMPDEST PUSH2 0x17B5 JUMP JUMPDEST PUSH2 0xF3C JUMP JUMPDEST SWAP1 POP SWAP2 SWAP1 POP JUMP JUMPDEST PUSH1 0x0 DUP2 SWAP1 POP SWAP2 SWAP1 POP JUMP JUMPDEST PUSH2 0x17F4 DUP4 PUSH2 0x17BF JUMP JUMPDEST PUSH2 0x1808 PUSH2 0x1800 DUP3 PUSH2 0x17E1 JUMP JUMPDEST DUP5 DUP5 SLOAD PUSH2 0x1763 JUMP JUMPDEST DUP3 SSTORE POP POP POP POP JUMP JUMPDEST PUSH1 0x0 SWAP1 JUMP JUMPDEST PUSH2 0x181D PUSH2 0x1810 JUMP JUMPDEST PUSH2 0x1828 DUP2 DUP5 DUP5 PUSH2 0x17EB JUMP JUMPDEST POP POP POP JUMP JUMPDEST JUMPDEST DUP2 DUP2 LT ISZERO PUSH2 0x184C JUMPI PUSH2 0x1841 PUSH1 0x0 DUP3 PUSH2 0x1815 JUMP JUMPDEST PUSH1 0x1 DUP2 ADD SWAP1 POP PUSH2 0x182E JUMP JUMPDEST POP POP JUMP JUMPDEST PUSH1 0x1F DUP3 GT ISZERO PUSH2 0x1891 JUMPI PUSH2 0x1862 DUP2 PUSH2 0x1731 JUMP JUMPDEST PUSH2 0x186B DUP5 PUSH2 0x1746 JUMP JUMPDEST DUP2 ADD PUSH1 0x20 DUP6 LT ISZERO PUSH2 0x187A JUMPI DUP2 SWAP1 POP JUMPDEST PUSH2 0x188E PUSH2 0x1886 DUP6 PUSH2 0x1746 JUMP JUMPDEST DUP4 ADD DUP3 PUSH2 0x182D JUMP JUMPDEST POP POP JUMPDEST POP POP POP JUMP JUMPDEST PUSH1 0x0 DUP3 DUP3 SHR SWAP1 POP SWAP3 SWAP2 POP POP JUMP JUMPDEST PUSH1 0x0 PUSH2 0x18B4 PUSH1 0x0 NOT DUP5 PUSH1 0x8 MUL PUSH2 0x1896 JUMP JUMPDEST NOT DUP1 DUP4 AND SWAP2 POP POP SWAP3 SWAP2 POP POP JUMP JUMPDEST PUSH1 0x0 PUSH2 0x18CD DUP4 DUP4 PUSH2 0x18A3 JUMP JUMPDEST SWAP2 POP DUP3 PUSH1 0x2 MUL DUP3 OR SWAP1 POP SWAP3 SWAP2 POP POP JUMP JUMPDEST PUSH2 0x18E6 DUP3 PUSH2 0x1068 JUMP JUMPDEST PUSH8 0xFFFFFFFFFFFFFFFF DUP2 GT ISZERO PUSH2 0x18FF JUMPI PUSH2 0x18FE PUSH2 0x1140 JUMP JUMPDEST JUMPDEST PUSH2 0x1909 DUP3 SLOAD PUSH2 0x1602 JUMP JUMPDEST PUSH2 0x1914 DUP3 DUP3 DUP6 PUSH2 0x1850 JUMP JUMPDEST PUSH1 0x0 PUSH1 0x20 SWAP1 POP PUSH1 0x1F DUP4 GT PUSH1 0x1 DUP2 EQ PUSH2 0x1947 JUMPI PUSH1 0x0 DUP5 ISZERO PUSH2 0x1935 JUMPI DUP3 DUP8 ADD MLOAD SWAP1 POP JUMPDEST PUSH2 0x193F DUP6 DUP3 PUSH2 0x18C1 JUMP JUMPDEST DUP7 SSTORE POP PUSH2 0x19A7 JUMP JUMPDEST PUSH1 0x1F NOT DUP5 AND PUSH2 0x1955 DUP7 PUSH2 0x1731 JUMP JUMPDEST PUSH1 0x0 JUMPDEST DUP3 DUP2 LT ISZERO PUSH2 0x197D JUMPI DUP5 DUP10 ADD MLOAD DUP3 SSTORE PUSH1 0x1 DUP3 ADD SWAP2 POP PUSH1 0x20 DUP6 ADD SWAP5 POP PUSH1 0x20 DUP2 ADD SWAP1 POP PUSH2 0x1958 JUMP JUMPDEST DUP7 DUP4 LT ISZERO PUSH2 0x199A JUMPI DUP5 DUP10 ADD MLOAD PUSH2 0x1996 PUSH1 0x1F DUP10 AND DUP3 PUSH2 0x18A3 JUMP JUMPDEST DUP4 SSTORE POP JUMPDEST PUSH1 0x1 PUSH1 0x2 DUP9 MUL ADD DUP9 SSTORE POP POP POP JUMPDEST POP POP POP POP POP POP JUMP JUMPDEST PUSH1 0x0 PUSH2 0x19BA DUP3 PUSH2 0xF3C JUMP JUMPDEST SWAP2 POP PUSH2 0x19C5 DUP4 PUSH2 0xF3C JUMP JUMPDEST SWAP3 POP DUP3 DUP3 MUL PUSH2 0x19D3 DUP2 PUSH2 0xF3C JUMP JUMPDEST SWAP2 POP DUP3 DUP3 DIV DUP5 EQ DUP4 ISZERO OR PUSH2 0x19EA JUMPI PUSH2 0x19E9 PUSH2 0x1320 JUMP JUMPDEST JUMPDEST POP SWAP3 SWAP2 POP POP JUMP JUMPDEST PUSH32 0x4E487B7100000000000000000000000000000000000000000000000000000000 PUSH1 0x0 MSTORE PUSH1 0x12 PUSH1 0x4 MSTORE PUSH1 0x24 PUSH1 0x0 REVERT JUMPDEST PUSH1 0x0 PUSH2 0x1A2B DUP3 PUSH2 0xF3C JUMP JUMPDEST SWAP2 POP PUSH2 0x1A36 DUP4 PUSH2 0xF3C JUMP JUMPDEST SWAP3 POP DUP3 PUSH2 0x1A46 JUMPI PUSH2 0x1A45 PUSH2 0x19F1 JUMP JUMPDEST JUMPDEST DUP3 DUP3 DIV SWAP1 POP SWAP3 SWAP2 POP POP JUMP INVALID LOG2 PUSH5 0x6970667358 0x22 SLT KECCAK256 GASPRICE DUP3 0x24 SDIV CODESIZE COINBASE SWAP8 JUMPDEST 0x4F 0x25 0x21 ADDMOD LOG2 MLOAD STATICCALL EXTCODESIZE SELFBALANCE 0xC9 0xD1 PUSH26 0xC383AC8A4220BC7B780A8A8464736F6C63430008110033000000 "},"gasEstimates":{"creation":{"codeDepositCost":"1358200","executionCost":"107066","totalCost":"1465266"},"external":{"changeLowestDepositAmount(uint256)":"24713","changeRate(uint256)":"24757","deposit()":"infinite","funds()":"2451","getBalance()":"infinite","getFunds()":"4675","getInterestRate()":"4697","getInvestedAmount()":"4652","getLowestDepositAmount()":"2460","interestRate()":"2518","investedAmount()":"2495","lastUpdate()":"2518","lowestDepositAmount()":"2539","register(string)":"infinite","totalInterest()":"2496","users(address)":"infinite","withdraw(uint256)":"infinite"},"internal":{"calculateInterest(address)":"infinite","updateBalance(address)":"infinite"}},"methodIdentifiers":{"changeLowestDepositAmount(uint256)":"9865f1c2","changeRate(uint256)":"74e7493b","deposit()":"d0e30db0","funds()":"c89f2ce4","getBalance()":"12065fe0","getFunds()":"4d9b3735","getInterestRate()":"5257b566","getInvestedAmount()":"62243096","getLowestDepositAmount()":"608032ed","interestRate()":"7c3a00fd","investedAmount()":"eaab4597","lastUpdate()":"c0463711","lowestDepositAmount()":"f3121800","register(string)":"f2c298be","totalInterest()":"bc7a36d6","users(address)":"a87430ba","withdraw(uint256)":"2e1a7d4d"}},"storageLayout":{"storage":[{"astId":1497,"contract":"src/PoolWithHigherInterest.sol:PoolWithHigherInterest","label":"users","offset":0,"slot":"0","type":"t_mapping(t_address,t_struct(User)1488_storage)"},{"astId":1499,"contract":"src/PoolWithHigherInterest.sol:PoolWithHigherInterest","label":"admin","offset":0,"slot":"1","type":"t_address_payable"},{"astId":1501,"contract":"src/PoolWithHigherInterest.sol:PoolWithHigherInterest","label":"funds","offset":0,"slot":"2","type":"t_uint256"},{"astId":1503,"contract":"src/PoolWithHigherInterest.sol:PoolWithHigherInterest","label":"totalInterest","offset":0,"slot":"3","type":"t_uint256"},{"astId":1505,"contract":"src/PoolWithHigherInterest.sol:PoolWithHigherInterest","label":"lastUpdate","offset":0,"slot":"4","type":"t_uint256"},{"astId":1507,"contract":"src/PoolWithHigherInterest.sol:PoolWithHigherInterest","label":"interestRate","offset":0,"slot":"5","type":"t_uint256"},{"astId":1509,"contract":"src/PoolWithHigherInterest.sol:PoolWithHigherInterest","label":"investedAmount","offset":0,"slot":"6","type":"t_uint256"},{"astId":1511,"contract":"src/PoolWithHigherInterest.sol:PoolWithHigherInterest","label":"lowestDepositAmount","offset":0,"slot":"7","type":"t_uint256"}],"types":{"t_address":{"encoding":"inplace","label":"address","numberOfBytes":"20"},"t_address_payable":{"encoding":"inplace","label":"address payable","numberOfBytes":"20"},"t_mapping(t_address,t_struct(User)1488_storage)":{"encoding":"mapping","key":"t_address","label":"mapping(address => struct PoolWithHigherInterest.User)","numberOfBytes":"32","value":"t_struct(User)1488_storage"},"t_string_storage":{"encoding":"bytes","label":"string","numberOfBytes":"32"},"t_struct(User)1488_storage":{"encoding":"inplace","label":"struct PoolWithHigherInterest.User","members":[{"astId":1483,"contract":"src/PoolWithHigherInterest.sol:PoolWithHigherInterest","label":"balance","offset":0,"slot":"0","type":"t_uint256"},{"astId":1485,"contract":"src/PoolWithHigherInterest.sol:PoolWithHigherInterest","label":"lastUpdateTime","offset":0,"slot":"1","type":"t_uint256"},{"astId":1487,"contract":"src/PoolWithHigherInterest.sol:PoolWithHigherInterest","label":"name","offset":0,"slot":"2","type":"t_string_storage"}],"numberOfBytes":"96"},"t_uint256":{"encoding":"inplace","label":"uint256","numberOfBytes":"32"}}},"userdoc":{"kind":"user","methods":{},"version":1}}}}