{
  "_format": "hh-sol-artifact-1",
  "contractName": "PoolWithHigherInterest",
  "sourceName": "src/PoolWithHigherInterest.sol",
  "abi": [
    {
      "inputs": [],
      "stateMutability": "nonpayable",
      "type": "constructor"
    },
    {
      "anonymous": false,
      "inputs": [
        {
          "indexed": false,
          "internalType": "address",
          "name": "customer",
          "type": "address"
        }
      ],
      "name": "Refund",
      "type": "event"
    },
    {
      "inputs": [
        {
          "internalType": "uint256",
          "name": "value",
          "type": "uint256"
        }
      ],
      "name": "changeLowestDepositAmount",
      "outputs": [],
      "stateMutability": "nonpayable",
      "type": "function"
    },
    {
      "inputs": [
        {
          "internalType": "uint256",
          "name": "newRate",
          "type": "uint256"
        }
      ],
      "name": "changeRate",
      "outputs": [],
      "stateMutability": "nonpayable",
      "type": "function"
    },
    {
      "inputs": [],
      "name": "deposit",
      "outputs": [],
      "stateMutability": "payable",
      "type": "function"
    },
    {
      "inputs": [],
      "name": "funds",
      "outputs": [
        {
          "internalType": "uint256",
          "name": "",
          "type": "uint256"
        }
      ],
      "stateMutability": "view",
      "type": "function"
    },
    {
      "inputs": [],
      "name": "getBalance",
      "outputs": [
        {
          "internalType": "uint256",
          "name": "",
          "type": "uint256"
        }
      ],
      "stateMutability": "view",
      "type": "function"
    },
    {
      "inputs": [],
      "name": "getFunds",
      "outputs": [
        {
          "internalType": "uint256",
          "name": "",
          "type": "uint256"
        }
      ],
      "stateMutability": "view",
      "type": "function"
    },
    {
      "inputs": [],
      "name": "getInterestRate",
      "outputs": [
        {
          "internalType": "uint256",
          "name": "",
          "type": "uint256"
        }
      ],
      "stateMutability": "view",
      "type": "function"
    },
    {
      "inputs": [],
      "name": "getInvestedAmount",
      "outputs": [
        {
          "internalType": "uint256",
          "name": "",
          "type": "uint256"
        }
      ],
      "stateMutability": "view",
      "type": "function"
    },
    {
      "inputs": [],
      "name": "getLowestDepositAmount",
      "outputs": [
        {
          "internalType": "uint256",
          "name": "",
          "type": "uint256"
        }
      ],
      "stateMutability": "view",
      "type": "function"
    },
    {
      "inputs": [],
      "name": "interestRate",
      "outputs": [
        {
          "internalType": "uint256",
          "name": "",
          "type": "uint256"
        }
      ],
      "stateMutability": "view",
      "type": "function"
    },
    {
      "inputs": [],
      "name": "investedAmount",
      "outputs": [
        {
          "internalType": "uint256",
          "name": "",
          "type": "uint256"
        }
      ],
      "stateMutability": "view",
      "type": "function"
    },
    {
      "inputs": [],
      "name": "lastUpdate",
      "outputs": [
        {
          "internalType": "uint256",
          "name": "",
          "type": "uint256"
        }
      ],
      "stateMutability": "view",
      "type": "function"
    },
    {
      "inputs": [],
      "name": "lowestDepositAmount",
      "outputs": [
        {
          "internalType": "uint256",
          "name": "",
          "type": "uint256"
        }
      ],
      "stateMutability": "view",
      "type": "function"
    },
    {
      "inputs": [
        {
          "internalType": "string",
          "name": "name",
          "type": "string"
        }
      ],
      "name": "register",
      "outputs": [],
      "stateMutability": "nonpayable",
      "type": "function"
    },
    {
      "inputs": [],
      "name": "totalInterest",
      "outputs": [
        {
          "internalType": "uint256",
          "name": "",
          "type": "uint256"
        }
      ],
      "stateMutability": "view",
      "type": "function"
    },
    {
      "inputs": [
        {
          "internalType": "address",
          "name": "",
          "type": "address"
        }
      ],
      "name": "users",
      "outputs": [
        {
          "internalType": "uint256",
          "name": "balance",
          "type": "uint256"
        },
        {
          "internalType": "uint256",
          "name": "lastUpdateTime",
          "type": "uint256"
        },
        {
          "internalType": "string",
          "name": "name",
          "type": "string"
        }
      ],
      "stateMutability": "view",
      "type": "function"
    },
    {
      "inputs": [
        {
          "internalType": "uint256",
          "name": "amount",
          "type": "uint256"
        }
      ],
      "name": "withdraw",
      "outputs": [],
      "stateMutability": "nonpayable",
      "type": "function"
    }
  ],
  "bytecode": "0x608060405234801561001057600080fd5b5033600160006101000a81548173ffffffffffffffffffffffffffffffffffffffff021916908373ffffffffffffffffffffffffffffffffffffffff1602179055506000600281905550600060038190555042600481905550600460058190555060006006819055506729a2241af62c0000600781905550611a87806100976000396000f3fe6080604052600436106100fe5760003560e01c80639865f1c211610095578063c89f2ce411610064578063c89f2ce414610315578063d0e30db014610340578063eaab45971461034a578063f2c298be14610375578063f31218001461039e576100fe565b80639865f1c214610257578063a87430ba14610280578063bc7a36d6146102bf578063c0463711146102ea576100fe565b8063608032ed116100d1578063608032ed146101ad57806362243096146101d857806374e7493b146102035780637c3a00fd1461022c576100fe565b806312065fe0146101035780632e1a7d4d1461012e5780634d9b3735146101575780635257b56614610182575b600080fd5b34801561010f57600080fd5b506101186103c9565b6040516101259190610f55565b60405180910390f35b34801561013a57600080fd5b5061015560048036038101906101509190610fb0565b6104a8565b005b34801561016357600080fd5b5061016c610763565b6040516101799190610f55565b60405180910390f35b34801561018e57600080fd5b506101976107fd565b6040516101a49190610f55565b60405180910390f35b3480156101b957600080fd5b506101c2610897565b6040516101cf9190610f55565b60405180910390f35b3480156101e457600080fd5b506101ed6108a1565b6040516101fa9190610f55565b60405180910390f35b34801561020f57600080fd5b5061022a60048036038101906102259190610fb0565b61093b565b005b34801561023857600080fd5b506102416109d5565b60405161024e9190610f55565b60405180910390f35b34801561026357600080fd5b5061027e60048036038101906102799190610fb0565b6109db565b005b34801561028c57600080fd5b506102a760048036038101906102a2919061103b565b610a75565b6040516102b6939291906110f8565b60405180910390f35b3480156102cb57600080fd5b506102d4610b27565b6040516102e19190610f55565b60405180910390f35b3480156102f657600080fd5b506102ff610b2d565b60405161030c9190610f55565b60405180910390f35b34801561032157600080fd5b5061032a610b33565b6040516103379190610f55565b60405180910390f35b610348610b39565b005b34801561035657600080fd5b5061035f610cc4565b60405161036c9190610f55565b60405180910390f35b34801561038157600080fd5b5061039c6004803603810190610397919061126b565b610cca565b005b3480156103aa57600080fd5b506103b3610d9e565b6040516103c09190610f55565b60405180910390f35b6000806000803373ffffffffffffffffffffffffffffffffffffffff1673ffffffffffffffffffffffffffffffffffffffff168152602001908152602001600020600101541161044e576040517f08c379a000000000000000000000000000000000000000000000000000000000815260040161044590611300565b60405180910390fd5b61045733610da4565b6000803373ffffffffffffffffffffffffffffffffffffffff1673ffffffffffffffffffffffffffffffffffffffff168152602001908152602001600020600001546104a3919061134f565b905090565b60008060003373ffffffffffffffffffffffffffffffffffffffff1673ffffffffffffffffffffffffffffffffffffffff168152602001908152602001600020600101541161052c576040517f08c379a000000000000000000000000000000000000000000000000000000000815260040161052390611300565b60405180910390fd5b6000811161056f576040517f08c379a0000000000000000000000000000000000000000000000000000000008152600401610566906113f5565b60405180910390fd5b806000803373ffffffffffffffffffffffffffffffffffffffff1673ffffffffffffffffffffffffffffffffffffffff1681526020019081526020016000206000015410156105f3576040517f08c379a00000000000000000000000000000000000000000000000000000000081526004016105ea90611461565b60405180910390fd5b6105fc33610e6d565b806000803373ffffffffffffffffffffffffffffffffffffffff1673ffffffffffffffffffffffffffffffffffffffff168152602001908152602001600020600001600082825461064d9190611481565b92505081905550426000803373ffffffffffffffffffffffffffffffffffffffff1673ffffffffffffffffffffffffffffffffffffffff1681526020019081526020016000206001018190555080600260008282546106ac9190611481565b9250508190555060003373ffffffffffffffffffffffffffffffffffffffff16826040516106d9906114e6565b60006040518083038185875af1925050503d8060008114610716576040519150601f19603f3d011682016040523d82523d6000602084013e61071b565b606091505b505090508061075f576040517f08c379a000000000000000000000000000000000000000000000000000000000815260040161075690611547565b60405180910390fd5b5050565b6000600160009054906101000a900473ffffffffffffffffffffffffffffffffffffffff1673ffffffffffffffffffffffffffffffffffffffff163373ffffffffffffffffffffffffffffffffffffffff16146107f5576040517f08c379a00000000000000000000000000000000000000000000000000000000081526004016107ec906115b3565b60405180910390fd5b600254905090565b6000600160009054906101000a900473ffffffffffffffffffffffffffffffffffffffff1673ffffffffffffffffffffffffffffffffffffffff163373ffffffffffffffffffffffffffffffffffffffff161461088f576040517f08c379a0000000000000000000000000000000000000000000000000000000008152600401610886906115b3565b60405180910390fd5b600554905090565b6000600754905090565b6000600160009054906101000a900473ffffffffffffffffffffffffffffffffffffffff1673ffffffffffffffffffffffffffffffffffffffff163373ffffffffffffffffffffffffffffffffffffffff1614610933576040517f08c379a000000000000000000000000000000000000000000000000000000000815260040161092a906115b3565b60405180910390fd5b600654905090565b600160009054906101000a900473ffffffffffffffffffffffffffffffffffffffff1673ffffffffffffffffffffffffffffffffffffffff163373ffffffffffffffffffffffffffffffffffffffff16146109cb576040517f08c379a00000000000000000000000000000000000000000000000000000000081526004016109c2906115b3565b60405180910390fd5b8060058190555050565b60055481565b600160009054906101000a900473ffffffffffffffffffffffffffffffffffffffff1673ffffffffffffffffffffffffffffffffffffffff163373ffffffffffffffffffffffffffffffffffffffff1614610a6b576040517f08c379a0000000000000000000000000000000000000000000000000000000008152600401610a62906115b3565b60405180910390fd5b8060078190555050565b6000602052806000526040600020600091509050806000015490806001015490806002018054610aa490611602565b80601f0160208091040260200160405190810160405280929190818152602001828054610ad090611602565b8015610b1d5780601f10610af257610100808354040283529160200191610b1d565b820191906000526020600020905b815481529060010190602001808311610b0057829003601f168201915b5050505050905083565b60035481565b60045481565b60025481565b60008060003373ffffffffffffffffffffffffffffffffffffffff1673ffffffffffffffffffffffffffffffffffffffff1681526020019081526020016000206001015411610bbd576040517f08c379a0000000000000000000000000000000000000000000000000000000008152600401610bb490611300565b60405180910390fd5b600754341015610c02576040517f08c379a0000000000000000000000000000000000000000000000000000000008152600401610bf9906116a5565b60405180910390fd5b610c0b33610e6d565b346000803373ffffffffffffffffffffffffffffffffffffffff1673ffffffffffffffffffffffffffffffffffffffff1681526020019081526020016000206000016000828254610c5c919061134f565b92505081905550426000803373ffffffffffffffffffffffffffffffffffffffff1673ffffffffffffffffffffffffffffffffffffffff168152602001908152602001600020600101819055503460026000828254610cbb919061134f565b92505081905550565b60065481565b6000815103610d0e576040517f08c379a0000000000000000000000000000000000000000000000000000000008152600401610d0590611711565b60405180910390fd5b6000604051806060016040528060008152602001428152602001838152509050806000803373ffffffffffffffffffffffffffffffffffffffff1673ffffffffffffffffffffffffffffffffffffffff16815260200190815260200160002060008201518160000155602082015181600101556040820151816002019081610d9691906118dd565b509050505050565b60075481565b6000806000808473ffffffffffffffffffffffffffffffffffffffff1673ffffffffffffffffffffffffffffffffffffffff1681526020019081526020016000206001015442610df49190611481565b9050600063bbf81e00826005546000808873ffffffffffffffffffffffffffffffffffffffff1673ffffffffffffffffffffffffffffffffffffffff16815260200190815260200160002060000154610e4d91906119af565b610e5791906119af565b610e619190611a20565b90508092505050919050565b6000610e7882610da4565b9050426004819055508060036000828254610e93919061134f565b92505081905550806000808473ffffffffffffffffffffffffffffffffffffffff1673ffffffffffffffffffffffffffffffffffffffff1681526020019081526020016000206000016000828254610eeb919061134f565b92505081905550426000808473ffffffffffffffffffffffffffffffffffffffff1673ffffffffffffffffffffffffffffffffffffffff168152602001908152602001600020600101819055505050565b6000819050919050565b610f4f81610f3c565b82525050565b6000602082019050610f6a6000830184610f46565b92915050565b6000604051905090565b600080fd5b600080fd5b610f8d81610f3c565b8114610f9857600080fd5b50565b600081359050610faa81610f84565b92915050565b600060208284031215610fc657610fc5610f7a565b5b6000610fd484828501610f9b565b91505092915050565b600073ffffffffffffffffffffffffffffffffffffffff82169050919050565b600061100882610fdd565b9050919050565b61101881610ffd565b811461102357600080fd5b50565b6000813590506110358161100f565b92915050565b60006020828403121561105157611050610f7a565b5b600061105f84828501611026565b91505092915050565b600081519050919050565b600082825260208201905092915050565b60005b838110156110a2578082015181840152602081019050611087565b60008484015250505050565b6000601f19601f8301169050919050565b60006110ca82611068565b6110d48185611073565b93506110e4818560208601611084565b6110ed816110ae565b840191505092915050565b600060608201905061110d6000830186610f46565b61111a6020830185610f46565b818103604083015261112c81846110bf565b9050949350505050565b600080fd5b600080fd5b7f4e487b7100000000000000000000000000000000000000000000000000000000600052604160045260246000fd5b611178826110ae565b810181811067ffffffffffffffff8211171561119757611196611140565b5b80604052505050565b60006111aa610f70565b90506111b6828261116f565b919050565b600067ffffffffffffffff8211156111d6576111d5611140565b5b6111df826110ae565b9050602081019050919050565b82818337600083830152505050565b600061120e611209846111bb565b6111a0565b90508281526020810184848401111561122a5761122961113b565b5b6112358482856111ec565b509392505050565b600082601f83011261125257611251611136565b5b81356112628482602086016111fb565b91505092915050565b60006020828403121561128157611280610f7a565b5b600082013567ffffffffffffffff81111561129f5761129e610f7f565b5b6112ab8482850161123d565b91505092915050565b7f546869732075736572206973206e6f7420726567697374657265640000000000600082015250565b60006112ea601b83611073565b91506112f5826112b4565b602082019050919050565b60006020820190508181036000830152611319816112dd565b9050919050565b7f4e487b7100000000000000000000000000000000000000000000000000000000600052601160045260246000fd5b600061135a82610f3c565b915061136583610f3c565b925082820190508082111561137d5761137c611320565b5b92915050565b7f5769746864726177616c20616d6f756e74206d7573742062652067726561746560008201527f72207468616e207a65726f000000000000000000000000000000000000000000602082015250565b60006113df602b83611073565b91506113ea82611383565b604082019050919050565b6000602082019050818103600083015261140e816113d2565b9050919050565b7f496e73756666696369656e742062616c616e6365000000000000000000000000600082015250565b600061144b601483611073565b915061145682611415565b602082019050919050565b6000602082019050818103600083015261147a8161143e565b9050919050565b600061148c82610f3c565b915061149783610f3c565b92508282039050818111156114af576114ae611320565b5b92915050565b600081905092915050565b50565b60006114d06000836114b5565b91506114db826114c0565b600082019050919050565b60006114f1826114c3565b9150819050919050565b7f5769746864726177616c206661696c6564000000000000000000000000000000600082015250565b6000611531601183611073565b915061153c826114fb565b602082019050919050565b6000602082019050818103600083015261156081611524565b9050919050565b7f63616e206f6e6c792062652063616c6c656420627920746865206f776e657200600082015250565b600061159d601f83611073565b91506115a882611567565b602082019050919050565b600060208201905081810360008301526115cc81611590565b9050919050565b7f4e487b7100000000000000000000000000000000000000000000000000000000600052602260045260246000fd5b6000600282049050600182168061161a57607f821691505b60208210810361162d5761162c6115d3565b5b50919050565b7f4465706f73697420616d6f756e742063616e206e6f74206265206c657373207460008201527f68616e206c6f776573744465706f736974416d6f756e74000000000000000000602082015250565b600061168f603783611073565b915061169a82611633565b604082019050919050565b600060208201905081810360008301526116be81611682565b9050919050565b7f4e616d65206973206e6f742070726f7669646564000000000000000000000000600082015250565b60006116fb601483611073565b9150611706826116c5565b602082019050919050565b6000602082019050818103600083015261172a816116ee565b9050919050565b60008190508160005260206000209050919050565b60006020601f8301049050919050565b600082821b905092915050565b6000600883026117937fffffffffffffffffffffffffffffffffffffffffffffffffffffffffffffffff82611756565b61179d8683611756565b95508019841693508086168417925050509392505050565b6000819050919050565b60006117da6117d56117d084610f3c565b6117b5565b610f3c565b9050919050565b6000819050919050565b6117f4836117bf565b611808611800826117e1565b848454611763565b825550505050565b600090565b61181d611810565b6118288184846117eb565b505050565b5b8181101561184c57611841600082611815565b60018101905061182e565b5050565b601f8211156118915761186281611731565b61186b84611746565b8101602085101561187a578190505b61188e61188685611746565b83018261182d565b50505b505050565b600082821c905092915050565b60006118b460001984600802611896565b1980831691505092915050565b60006118cd83836118a3565b9150826002028217905092915050565b6118e682611068565b67ffffffffffffffff8111156118ff576118fe611140565b5b6119098254611602565b611914828285611850565b600060209050601f8311600181146119475760008415611935578287015190505b61193f85826118c1565b8655506119a7565b601f19841661195586611731565b60005b8281101561197d57848901518255600182019150602085019450602081019050611958565b8683101561199a5784890151611996601f8916826118a3565b8355505b6001600288020188555050505b505050505050565b60006119ba82610f3c565b91506119c583610f3c565b92508282026119d381610f3c565b915082820484148315176119ea576119e9611320565b5b5092915050565b7f4e487b7100000000000000000000000000000000000000000000000000000000600052601260045260246000fd5b6000611a2b82610f3c565b9150611a3683610f3c565b925082611a4657611a456119f1565b5b82820490509291505056fea26469706673582212203a8224053841975b4f252108a251fa3b47c9d179c383ac8a4220bc7b780a8a8464736f6c63430008110033",
  "linkReferences": {},
  "deployedLinkReferences": {}
}