{
  "address": "0x674C355E04e4e357d9F03C0Bde71F0c19A35b5A9",
  "abi": [
    {
      "inputs": [],
      "stateMutability": "nonpayable",
      "type": "constructor"
    },
    {
      "inputs": [],
      "name": "adminCancelGame",
      "outputs": [],
      "stateMutability": "nonpayable",
      "type": "function"
    },
    {
      "inputs": [
        {
          "internalType": "uint8[6]",
          "name": "newNums",
          "type": "uint8[6]"
        }
      ],
      "name": "buyTicket",
      "outputs": [],
      "stateMutability": "payable",
      "type": "function"
    },
    {
      "inputs": [
        {
          "internalType": "uint256",
          "name": "newRate",
          "type": "uint256"
        }
      ],
      "name": "changeRate",
      "outputs": [],
      "stateMutability": "nonpayable",
      "type": "function"
    },
    {
      "inputs": [],
      "name": "deposit",
      "outputs": [],
      "stateMutability": "payable",
      "type": "function"
    },
    {
      "inputs": [],
      "name": "doCharityDonation",
      "outputs": [
        {
          "internalType": "uint256",
          "name": "",
          "type": "uint256"
        }
      ],
      "stateMutability": "view",
      "type": "function"
    },
    {
      "inputs": [],
      "name": "draw",
      "outputs": [],
      "stateMutability": "nonpayable",
      "type": "function"
    },
    {
      "inputs": [],
      "name": "enableGame",
      "outputs": [],
      "stateMutability": "nonpayable",
      "type": "function"
    },
    {
      "inputs": [],
      "name": "gameOngoing",
      "outputs": [
        {
          "internalType": "bool",
          "name": "",
          "type": "bool"
        }
      ],
      "stateMutability": "view",
      "type": "function"
    },
    {
      "inputs": [],
      "name": "gameRound",
      "outputs": [
        {
          "internalType": "uint32",
          "name": "",
          "type": "uint32"
        }
      ],
      "stateMutability": "view",
      "type": "function"
    },
    {
      "inputs": [],
      "name": "getBalance",
      "outputs": [
        {
          "internalType": "uint256",
          "name": "",
          "type": "uint256"
        }
      ],
      "stateMutability": "view",
      "type": "function"
    },
    {
      "inputs": [],
      "name": "getExpectedPrize",
      "outputs": [
        {
          "internalType": "uint256",
          "name": "",
          "type": "uint256"
        }
      ],
      "stateMutability": "view",
      "type": "function"
    },
    {
      "inputs": [],
      "name": "getFunds",
      "outputs": [
        {
          "internalType": "uint256",
          "name": "",
          "type": "uint256"
        }
      ],
      "stateMutability": "view",
      "type": "function"
    },
    {
      "inputs": [],
      "name": "getGameRound",
      "outputs": [
        {
          "internalType": "uint32",
          "name": "",
          "type": "uint32"
        }
      ],
      "stateMutability": "view",
      "type": "function"
    },
    {
      "inputs": [],
      "name": "getGameStatus",
      "outputs": [
        {
          "internalType": "string",
          "name": "",
          "type": "string"
        }
      ],
      "stateMutability": "view",
      "type": "function"
    },
    {
      "inputs": [],
      "name": "getInterestRate",
      "outputs": [
        {
          "internalType": "uint256",
          "name": "",
          "type": "uint256"
        }
      ],
      "stateMutability": "view",
      "type": "function"
    },
    {
      "inputs": [],
      "name": "getInvestedAmount",
      "outputs": [
        {
          "internalType": "uint256",
          "name": "",
          "type": "uint256"
        }
      ],
      "stateMutability": "view",
      "type": "function"
    },
    {
      "inputs": [],
      "name": "getPlayerNumber",
      "outputs": [
        {
          "internalType": "uint32",
          "name": "",
          "type": "uint32"
        },
        {
          "internalType": "uint8[6]",
          "name": "",
          "type": "uint8[6]"
        }
      ],
      "stateMutability": "view",
      "type": "function"
    },
    {
      "inputs": [],
      "name": "getPoolBalance",
      "outputs": [
        {
          "internalType": "uint256",
          "name": "",
          "type": "uint256"
        }
      ],
      "stateMutability": "view",
      "type": "function"
    },
    {
      "inputs": [],
      "name": "getPrizePercentage",
      "outputs": [
        {
          "internalType": "uint256",
          "name": "",
          "type": "uint256"
        }
      ],
      "stateMutability": "view",
      "type": "function"
    },
    {
      "inputs": [],
      "name": "getTicketPrice",
      "outputs": [
        {
          "internalType": "uint32",
          "name": "",
          "type": "uint32"
        }
      ],
      "stateMutability": "view",
      "type": "function"
    },
    {
      "inputs": [
        {
          "internalType": "address",
          "name": "user",
          "type": "address"
        }
      ],
      "name": "getUserInterestRate",
      "outputs": [
        {
          "internalType": "uint256",
          "name": "",
          "type": "uint256"
        }
      ],
      "stateMutability": "view",
      "type": "function"
    },
    {
      "inputs": [],
      "name": "getWinningNumber",
      "outputs": [
        {
          "internalType": "uint32",
          "name": "",
          "type": "uint32"
        },
        {
          "internalType": "uint8[6]",
          "name": "",
          "type": "uint8[6]"
        }
      ],
      "stateMutability": "view",
      "type": "function"
    },
    {
      "inputs": [],
      "name": "interestRate",
      "outputs": [
        {
          "internalType": "uint256",
          "name": "",
          "type": "uint256"
        }
      ],
      "stateMutability": "view",
      "type": "function"
    },
    {
      "inputs": [],
      "name": "investedAmount",
      "outputs": [
        {
          "internalType": "uint256",
          "name": "",
          "type": "uint256"
        }
      ],
      "stateMutability": "view",
      "type": "function"
    },
    {
      "inputs": [],
      "name": "lastUpdate",
      "outputs": [
        {
          "internalType": "uint256",
          "name": "",
          "type": "uint256"
        }
      ],
      "stateMutability": "view",
      "type": "function"
    },
    {
      "inputs": [
        {
          "internalType": "uint256",
          "name": "amount",
          "type": "uint256"
        }
      ],
      "name": "manuallyInvest",
      "outputs": [],
      "stateMutability": "nonpayable",
      "type": "function"
    },
    {
      "inputs": [
        {
          "internalType": "uint256",
          "name": "amount",
          "type": "uint256"
        }
      ],
      "name": "manuallyWithdraw",
      "outputs": [],
      "stateMutability": "nonpayable",
      "type": "function"
    },
    {
      "inputs": [],
      "name": "pauseGame",
      "outputs": [],
      "stateMutability": "nonpayable",
      "type": "function"
    },
    {
      "inputs": [],
      "name": "playerCancelTicket",
      "outputs": [],
      "stateMutability": "nonpayable",
      "type": "function"
    },
    {
      "inputs": [
        {
          "internalType": "uint256",
          "name": "",
          "type": "uint256"
        }
      ],
      "name": "playerList",
      "outputs": [
        {
          "internalType": "address",
          "name": "",
          "type": "address"
        }
      ],
      "stateMutability": "view",
      "type": "function"
    },
    {
      "inputs": [],
      "name": "playerNum",
      "outputs": [
        {
          "internalType": "uint32",
          "name": "",
          "type": "uint32"
        }
      ],
      "stateMutability": "view",
      "type": "function"
    },
    {
      "inputs": [],
      "name": "prizePercentage",
      "outputs": [
        {
          "internalType": "uint8",
          "name": "",
          "type": "uint8"
        }
      ],
      "stateMutability": "view",
      "type": "function"
    },
    {
      "inputs": [
        {
          "internalType": "string",
          "name": "name",
          "type": "string"
        }
      ],
      "name": "register",
      "outputs": [],
      "stateMutability": "nonpayable",
      "type": "function"
    },
    {
      "inputs": [
        {
          "internalType": "uint8",
          "name": "newPercent",
          "type": "uint8"
        }
      ],
      "name": "setPrizePercentage",
      "outputs": [],
      "stateMutability": "nonpayable",
      "type": "function"
    },
    {
      "inputs": [
        {
          "internalType": "uint32",
          "name": "newPrice",
          "type": "uint32"
        }
      ],
      "name": "setTicketPrice",
      "outputs": [],
      "stateMutability": "nonpayable",
      "type": "function"
    },
    {
      "inputs": [
        {
          "internalType": "address",
          "name": "",
          "type": "address"
        }
      ],
      "name": "ticketOrders",
      "outputs": [
        {
          "internalType": "bool",
          "name": "isValid",
          "type": "bool"
        },
        {
          "internalType": "bool",
          "name": "isClaimed",
          "type": "bool"
        },
        {
          "internalType": "uint32",
          "name": "playerGameRound",
          "type": "uint32"
        }
      ],
      "stateMutability": "view",
      "type": "function"
    },
    {
      "inputs": [],
      "name": "ticketPrice",
      "outputs": [
        {
          "internalType": "uint32",
          "name": "",
          "type": "uint32"
        }
      ],
      "stateMutability": "view",
      "type": "function"
    },
    {
      "inputs": [],
      "name": "totalInterest",
      "outputs": [
        {
          "internalType": "uint256",
          "name": "",
          "type": "uint256"
        }
      ],
      "stateMutability": "view",
      "type": "function"
    },
    {
      "inputs": [
        {
          "internalType": "address",
          "name": "",
          "type": "address"
        }
      ],
      "name": "users",
      "outputs": [
        {
          "internalType": "uint256",
          "name": "balance",
          "type": "uint256"
        },
        {
          "internalType": "uint256",
          "name": "lastUpdateTime",
          "type": "uint256"
        },
        {
          "internalType": "uint256",
          "name": "interestRate",
          "type": "uint256"
        },
        {
          "internalType": "string",
          "name": "name",
          "type": "string"
        }
      ],
      "stateMutability": "view",
      "type": "function"
    },
    {
      "inputs": [
        {
          "internalType": "uint256",
          "name": "",
          "type": "uint256"
        }
      ],
      "name": "winnerList",
      "outputs": [
        {
          "internalType": "address",
          "name": "",
          "type": "address"
        }
      ],
      "stateMutability": "view",
      "type": "function"
    },
    {
      "inputs": [
        {
          "internalType": "uint256",
          "name": "",
          "type": "uint256"
        }
      ],
      "name": "winningNums",
      "outputs": [
        {
          "internalType": "uint8",
          "name": "",
          "type": "uint8"
        }
      ],
      "stateMutability": "view",
      "type": "function"
    },
    {
      "inputs": [
        {
          "internalType": "uint256",
          "name": "amount",
          "type": "uint256"
        }
      ],
      "name": "withdraw",
      "outputs": [],
      "stateMutability": "nonpayable",
      "type": "function"
    }
  ],
  "transactionHash": "0xd160b482beddc7c7707c2a78d923e49c046cb74bcd4fdf4a79f95eaeb01444aa",
  "args": [],
  "numDeployments": 9,
  "solcInputHash": "5566241bc56189c05f945bb61ff82be3",
  "bytecode": "0x60806040523480156200001157600080fd5b5033600160006101000a81548173ffffffffffffffffffffffffffffffffffffffff021916908373ffffffffffffffffffffffffffffffffffffffff16021790555060006002819055504260038190555060026004819055506000600581905550734070c76a1635ecd0538388f8948806420814e1d0600660006101000a81548173ffffffffffffffffffffffffffffffffffffffff021916908373ffffffffffffffffffffffffffffffffffffffff160217905550600660009054906101000a900473ffffffffffffffffffffffffffffffffffffffff1673ffffffffffffffffffffffffffffffffffffffff1663f2c298be6040518163ffffffff1660e01b815260040162000122906200029d565b600060405180830381600087803b1580156200013d57600080fd5b505af115801562000152573d6000803e3d6000fd5b5050505060016006601a6101000a81548163ffffffff021916908363ffffffff1602179055506207a120600660156101000a81548163ffffffff021916908363ffffffff1602179055506046600660196101000a81548160ff021916908360ff1602179055506000600660146101000a81548160ff02191690831515021790555060005b60068160ff1610156200023557600060078260ff1660068110620001ff57620001fe620002bf565b5b602091828204019190066101000a81548160ff021916908360ff16021790555080806200022c906200032a565b915050620001d6565b5062000358565b600082825260208201905092915050565b7f4b4b000000000000000000000000000000000000000000000000000000000000600082015250565b6000620002856002836200023c565b915062000292826200024d565b602082019050919050565b60006020820190508181036000830152620002b88162000276565b9050919050565b7f4e487b7100000000000000000000000000000000000000000000000000000000600052603260045260246000fd5b7f4e487b7100000000000000000000000000000000000000000000000000000000600052601160045260246000fd5b600060ff82169050919050565b600062000337826200031d565b915060ff82036200034d576200034c620002ee565b5b600182019050919050565b6152ac80620003686000396000f3fe6080604052600436106102515760003560e01c806374e7493b11610139578063bdd42f2d116100b6578063d23e79e61161007a578063d23e79e614610839578063dc2d496114610878578063eaab4597146108a1578063ed459763146108cc578063ef6920d7146108f5578063f2c298be1461090c57610251565b8063bdd42f2d14610794578063c0463711146107b0578063c6cac2a9146107db578063cc4d9af514610804578063d0e30db01461082f57610251565b8063a5f9b5c2116100fd578063a5f9b5c214610696578063a87430ba146106c1578063abd70aa214610701578063ae6d90731461072c578063bc7a36d61461076957610251565b806374e7493b146105d457806374f7d741146105fd5780637c3a00fd1461061457806387bb7ae01461063f5780638b0b9ed41461066a57610251565b806323974601116101d25780634d9b3735116101965780634d9b3735146104ae5780635257b566146104d95780635578027e1461050457806357b5e09a14610541578063622430961461057e57806365f81946146105a957610251565b806323974601146103ef5780632e1a7d4d1461042c578063340988de14610455578063382396ee1461046c578063499831f21461049757610251565b806311dc73351161021957806311dc73351461031757806312065fe0146103425780631209b1f61461036d57806313eaac6c14610398578063214b2bea146103c457610251565b806303e28366146102565780630ddb9ec1146102815780630eecae21146102aa578063104492a0146102c1578063112d83c2146102ec575b600080fd5b34801561026257600080fd5b5061026b610935565b60405161027891906137c1565b60405180910390f35b34801561028d57600080fd5b506102a860048036038101906102a39190613826565b61094b565b005b3480156102b657600080fd5b506102bf610a2c565b005b3480156102cd57600080fd5b506102d661128a565b6040516102e39190613862565b60405180910390f35b3480156102f857600080fd5b506103016112bb565b60405161030e9190613862565b60405180910390f35b34801561032357600080fd5b5061032c611353565b6040516103399190613899565b60405180910390f35b34801561034e57600080fd5b50610357611366565b6040516103649190613862565b60405180910390f35b34801561037957600080fd5b50610382611445565b60405161038f91906137c1565b60405180910390f35b3480156103a457600080fd5b506103ad61145b565b6040516103bb92919061395f565b60405180910390f35b3480156103d057600080fd5b506103d9611567565b6040516103e69190613862565b60405180910390f35b3480156103fb57600080fd5b5061041660048036038101906104119190613826565b611581565b6040516104239190613899565b60405180910390f35b34801561043857600080fd5b50610453600480360381019061044e9190613826565b6115ab565b005b34801561046157600080fd5b5061046a6118d0565b005b34801561047857600080fd5b50610481611ac4565b60405161048e9190613a18565b60405180910390f35b3480156104a357600080fd5b506104ac611b57565b005b3480156104ba57600080fd5b506104c3611c04565b6040516104d09190613862565b60405180910390f35b3480156104e557600080fd5b506104ee611c9c565b6040516104fb9190613862565b60405180910390f35b34801561051057600080fd5b5061052b60048036038101906105269190613826565b611d36565b6040516105389190613a7b565b60405180910390f35b34801561054d57600080fd5b5061056860048036038101906105639190613ac2565b611d75565b6040516105759190613862565b60405180910390f35b34801561058a57600080fd5b50610593611f09565b6040516105a09190613862565b60405180910390f35b3480156105b557600080fd5b506105be611fa3565b6040516105cb9190613b0a565b60405180910390f35b3480156105e057600080fd5b506105fb60048036038101906105f69190613826565b611fb6565b005b34801561060957600080fd5b50610612612050565b005b34801561062057600080fd5b506106296121a2565b6040516106369190613862565b60405180910390f35b34801561064b57600080fd5b506106546121a8565b60405161066191906137c1565b60405180910390f35b34801561067657600080fd5b5061067f6121c2565b60405161068d92919061395f565b60405180910390f35b3480156106a257600080fd5b506106ab61225a565b6040516106b891906137c1565b60405180910390f35b3480156106cd57600080fd5b506106e860048036038101906106e39190613ac2565b612270565b6040516106f89493929190613b25565b60405180910390f35b34801561070d57600080fd5b50610716612328565b6040516107239190613862565b60405180910390f35b34801561073857600080fd5b50610753600480360381019061074e9190613826565b612330565b6040516107609190613a7b565b60405180910390f35b34801561077557600080fd5b5061077e61236f565b60405161078b9190613862565b60405180910390f35b6107ae60048036038101906107a99190613cd3565b612375565b005b3480156107bc57600080fd5b506107c5612962565b6040516107d29190613862565b60405180910390f35b3480156107e757600080fd5b5061080260048036038101906107fd9190613d2c565b612968565b005b34801561081057600080fd5b50610819612a65565b60405161082691906137c1565b60405180910390f35b610837612a7f565b005b34801561084557600080fd5b50610860600480360381019061085b9190613ac2565b612caa565b60405161086f93929190613d59565b60405180910390f35b34801561088457600080fd5b5061089f600480360381019061089a9190613d90565b612cfe565b005b3480156108ad57600080fd5b506108b6612e02565b6040516108c39190613862565b60405180910390f35b3480156108d857600080fd5b506108f360048036038101906108ee9190613826565b612e08565b005b34801561090157600080fd5b5061090a612f76565b005b34801561091857600080fd5b50610933600480360381019061092e9190613e72565b613023565b005b600860009054906101000a900463ffffffff1681565b600160009054906101000a900473ffffffffffffffffffffffffffffffffffffffff1673ffffffffffffffffffffffffffffffffffffffff163373ffffffffffffffffffffffffffffffffffffffff16146109db576040517f08c379a00000000000000000000000000000000000000000000000000000000081526004016109d290613f07565b60405180910390fd5b806005541015610a20576040517f08c379a0000000000000000000000000000000000000000000000000000000008152600401610a1790613f99565b60405180910390fd5b610a298161318d565b50565b600160009054906101000a900473ffffffffffffffffffffffffffffffffffffffff1673ffffffffffffffffffffffffffffffffffffffff163373ffffffffffffffffffffffffffffffffffffffff1614610abc576040517f08c379a0000000000000000000000000000000000000000000000000000000008152600401610ab39061402b565b60405180910390fd5b6000600860009054906101000a900463ffffffff1663ffffffff1611610b17576040517f08c379a0000000000000000000000000000000000000000000000000000000008152600401610b0e906140bd565b60405180910390fd5b6000600660146101000a81548160ff021916908315150217905550610b3a613224565b6007906006610b4a9291906136a8565b5060005b600860009054906101000a900463ffffffff1663ffffffff168163ffffffff161015610f8d576006601a9054906101000a900463ffffffff1663ffffffff16600b600060098463ffffffff1681548110610bab57610baa6140dd565b5b9060005260206000200160009054906101000a900473ffffffffffffffffffffffffffffffffffffffff1673ffffffffffffffffffffffffffffffffffffffff1673ffffffffffffffffffffffffffffffffffffffff16815260200190815260200160002060000160029054906101000a900463ffffffff1663ffffffff16148015610cce575060011515600b600060098463ffffffff1681548110610c5457610c536140dd565b5b9060005260206000200160009054906101000a900473ffffffffffffffffffffffffffffffffffffffff1673ffffffffffffffffffffffffffffffffffffffff1673ffffffffffffffffffffffffffffffffffffffff16815260200190815260200160002060000160009054906101000a900460ff161515145b15610edb576000610e29600b600060098563ffffffff1681548110610cf657610cf56140dd565b5b9060005260206000200160009054906101000a900473ffffffffffffffffffffffffffffffffffffffff1673ffffffffffffffffffffffffffffffffffffffff1673ffffffffffffffffffffffffffffffffffffffff168152602001908152602001600020600101600680602002604051908101604052809291908260068015610dbb576020028201916000905b82829054906101000a900460ff1660ff1681526020019060010190602082600001049283019260010382029150808411610d845790505b50505050506007600680602002604051908101604052809291908260068015610e1f576020028201916000905b82829054906101000a900460ff1660ff1681526020019060010190602082600001049283019260010382029150808411610de85790505b505050505061335d565b90508015610ed957600a60098363ffffffff1681548110610e4d57610e4c6140dd565b5b9060005260206000200160009054906101000a900473ffffffffffffffffffffffffffffffffffffffff169080600181540180825580915050600190039060005260206000200160009091909190916101000a81548173ffffffffffffffffffffffffffffffffffffffff021916908373ffffffffffffffffffffffffffffffffffffffff1602179055505b505b6000600b600060098463ffffffff1681548110610efb57610efa6140dd565b5b9060005260206000200160009054906101000a900473ffffffffffffffffffffffffffffffffffffffff1673ffffffffffffffffffffffffffffffffffffffff1673ffffffffffffffffffffffffffffffffffffffff16815260200190815260200160002060000160006101000a81548160ff0219169083151502179055508080610f859061413b565b915050610b4e565b506000600a80549050111561120a576000600a805490506064610fb09190614167565b600660199054906101000a900460ff1660ff1647610fce9190614167565b610fd891906141d8565b905060005b600a805490508163ffffffff1610156112075760001515600b6000600a8463ffffffff1681548110611012576110116140dd565b5b9060005260206000200160009054906101000a900473ffffffffffffffffffffffffffffffffffffffff1673ffffffffffffffffffffffffffffffffffffffff1673ffffffffffffffffffffffffffffffffffffffff16815260200190815260200160002060000160019054906101000a900460ff161515146110ca576040517f08c379a00000000000000000000000000000000000000000000000000000000081526004016110c19061427b565b60405180910390fd5b6001600b6000600a8463ffffffff16815481106110ea576110e96140dd565b5b9060005260206000200160009054906101000a900473ffffffffffffffffffffffffffffffffffffffff1673ffffffffffffffffffffffffffffffffffffffff1673ffffffffffffffffffffffffffffffffffffffff16815260200190815260200160002060000160016101000a81548160ff021916908315150217905550600a8163ffffffff1681548110611183576111826140dd565b5b9060005260206000200160009054906101000a900473ffffffffffffffffffffffffffffffffffffffff1673ffffffffffffffffffffffffffffffffffffffff166108fc839081150290604051600060405180830381858888f193505050501580156111f3573d6000803e3d6000fd5b5080806111ff9061413b565b915050610fdd565b50505b60016006601a8282829054906101000a900463ffffffff1661122c919061429b565b92506101000a81548163ffffffff021916908363ffffffff1602179055506000600860006101000a81548163ffffffff021916908363ffffffff1602179055506009600061127a9190613742565b600a60006112889190613742565b565b60006064600660199054906101000a900460ff1660ff16476112ac9190614167565b6112b691906141d8565b905090565b6000600160009054906101000a900473ffffffffffffffffffffffffffffffffffffffff1673ffffffffffffffffffffffffffffffffffffffff163373ffffffffffffffffffffffffffffffffffffffff161461134d576040517f08c379a00000000000000000000000000000000000000000000000000000000081526004016113449061402b565b60405180910390fd5b47905090565b600660199054906101000a900460ff1681565b6000806000803373ffffffffffffffffffffffffffffffffffffffff1673ffffffffffffffffffffffffffffffffffffffff16815260200190815260200160002060010154116113eb576040517f08c379a00000000000000000000000000000000000000000000000000000000081526004016113e29061431f565b60405180910390fd5b6113f43361341f565b6000803373ffffffffffffffffffffffffffffffffffffffff1673ffffffffffffffffffffffffffffffffffffffff16815260200190815260200160002060000154611440919061433f565b905090565b600660159054906101000a900463ffffffff1681565b6000611465613763565b600b60003373ffffffffffffffffffffffffffffffffffffffff1673ffffffffffffffffffffffffffffffffffffffff16815260200190815260200160002060000160029054906101000a900463ffffffff16600b60003373ffffffffffffffffffffffffffffffffffffffff1673ffffffffffffffffffffffffffffffffffffffff16815260200190815260200160002060010180600680602002604051908101604052809291908260068015611558576020028201916000905b82829054906101000a900460ff1660ff16815260200190600101906020826000010492830192600103820291508084116115215790505b50505050509050915091509091565b6000600660199054906101000a900460ff1660ff16905090565b6007816006811061159157600080fd5b60209182820401919006915054906101000a900460ff1681565b60008060003373ffffffffffffffffffffffffffffffffffffffff1673ffffffffffffffffffffffffffffffffffffffff168152602001908152602001600020600101541161162f576040517f08c379a00000000000000000000000000000000000000000000000000000000081526004016116269061431f565b60405180910390fd5b60008111611672576040517f08c379a0000000000000000000000000000000000000000000000000000000008152600401611669906143e5565b60405180910390fd5b61167b336134e8565b806000803373ffffffffffffffffffffffffffffffffffffffff1673ffffffffffffffffffffffffffffffffffffffff1681526020019081526020016000206000015410156116ff576040517f08c379a00000000000000000000000000000000000000000000000000000000081526004016116f690614451565b60405180910390fd5b804710156117405747816117139190614471565b600560008282546117249190614471565b9250508190555061173f478261173a9190614471565b61318d565b5b806000803373ffffffffffffffffffffffffffffffffffffffff1673ffffffffffffffffffffffffffffffffffffffff16815260200190815260200160002060000160008282546117919190614471565b92505081905550426000803373ffffffffffffffffffffffffffffffffffffffff1673ffffffffffffffffffffffffffffffffffffffff16815260200190815260200160002060010181905550804711611820576040517f08c379a0000000000000000000000000000000000000000000000000000000008152600401611817906144f1565b60405180910390fd5b60003373ffffffffffffffffffffffffffffffffffffffff168260405161184690614542565b60006040518083038185875af1925050503d8060008114611883576040519150601f19603f3d011682016040523d82523d6000602084013e611888565b606091505b50509050806118cc576040517f08c379a00000000000000000000000000000000000000000000000000000000081526004016118c3906145a3565b60405180910390fd5b5050565b60001515600660149054906101000a900460ff16151514611926576040517f08c379a000000000000000000000000000000000000000000000000000000000815260040161191d90614635565b60405180910390fd5b60005b600860009054906101000a900463ffffffff1663ffffffff168163ffffffff161015611ac1576006601a9054906101000a900463ffffffff1663ffffffff16600b600060098463ffffffff1681548110611986576119856140dd565b5b9060005260206000200160009054906101000a900473ffffffffffffffffffffffffffffffffffffffff1673ffffffffffffffffffffffffffffffffffffffff1673ffffffffffffffffffffffffffffffffffffffff16815260200190815260200160002060000160029054906101000a900463ffffffff1663ffffffff1603611aae5760098163ffffffff1681548110611a2457611a236140dd565b5b9060005260206000200160009054906101000a900473ffffffffffffffffffffffffffffffffffffffff1673ffffffffffffffffffffffffffffffffffffffff166108fc600660159054906101000a900463ffffffff1663ffffffff169081150290604051600060405180830381858888f19350505050158015611aac573d6000803e3d6000fd5b505b8080611ab99061413b565b915050611929565b50565b60606000600660149054906101000a900460ff16611b17576040518060400160405280601081526020017f5061757365642f43616e63656c6c656400000000000000000000000000000000815250611b4e565b6040518060400160405280600781526020017f4f6e676f696e67000000000000000000000000000000000000000000000000008152505b90508091505090565b600160009054906101000a900473ffffffffffffffffffffffffffffffffffffffff1673ffffffffffffffffffffffffffffffffffffffff163373ffffffffffffffffffffffffffffffffffffffff1614611be7576040517f08c379a0000000000000000000000000000000000000000000000000000000008152600401611bde9061402b565b60405180910390fd5b6000600660146101000a81548160ff021916908315150217905550565b6000600160009054906101000a900473ffffffffffffffffffffffffffffffffffffffff1673ffffffffffffffffffffffffffffffffffffffff163373ffffffffffffffffffffffffffffffffffffffff1614611c96576040517f08c379a0000000000000000000000000000000000000000000000000000000008152600401611c8d90613f07565b60405180910390fd5b47905090565b6000600160009054906101000a900473ffffffffffffffffffffffffffffffffffffffff1673ffffffffffffffffffffffffffffffffffffffff163373ffffffffffffffffffffffffffffffffffffffff1614611d2e576040517f08c379a0000000000000000000000000000000000000000000000000000000008152600401611d2590613f07565b60405180910390fd5b600454905090565b600a8181548110611d4657600080fd5b906000526020600020016000915054906101000a900473ffffffffffffffffffffffffffffffffffffffff1681565b6000806000803373ffffffffffffffffffffffffffffffffffffffff1673ffffffffffffffffffffffffffffffffffffffff1681526020019081526020016000206001015411611dfa576040517f08c379a0000000000000000000000000000000000000000000000000000000008152600401611df19061431f565b60405180910390fd5b600160009054906101000a900473ffffffffffffffffffffffffffffffffffffffff1673ffffffffffffffffffffffffffffffffffffffff163373ffffffffffffffffffffffffffffffffffffffff161480611e8157508173ffffffffffffffffffffffffffffffffffffffff163373ffffffffffffffffffffffffffffffffffffffff16145b611ec0576040517f08c379a0000000000000000000000000000000000000000000000000000000008152600401611eb7906146c7565b60405180910390fd5b6000808373ffffffffffffffffffffffffffffffffffffffff1673ffffffffffffffffffffffffffffffffffffffff168152602001908152602001600020600201549050919050565b6000600160009054906101000a900473ffffffffffffffffffffffffffffffffffffffff1673ffffffffffffffffffffffffffffffffffffffff163373ffffffffffffffffffffffffffffffffffffffff1614611f9b576040517f08c379a0000000000000000000000000000000000000000000000000000000008152600401611f9290613f07565b60405180910390fd5b600554905090565b600660149054906101000a900460ff1681565b600160009054906101000a900473ffffffffffffffffffffffffffffffffffffffff1673ffffffffffffffffffffffffffffffffffffffff163373ffffffffffffffffffffffffffffffffffffffff1614612046576040517f08c379a000000000000000000000000000000000000000000000000000000000815260040161203d90613f07565b60405180910390fd5b8060048190555050565b60011515600b60003373ffffffffffffffffffffffffffffffffffffffff1673ffffffffffffffffffffffffffffffffffffffff16815260200190815260200160002060000160009054906101000a900460ff161515146120e6576040517f08c379a00000000000000000000000000000000000000000000000000000000081526004016120dd90614759565b60405180910390fd5b6000600b60003373ffffffffffffffffffffffffffffffffffffffff1673ffffffffffffffffffffffffffffffffffffffff16815260200190815260200160002060000160006101000a81548160ff0219169083151502179055503373ffffffffffffffffffffffffffffffffffffffff166108fc600660159054906101000a900463ffffffff1663ffffffff169081150290604051600060405180830381858888f1935050505015801561219f573d6000803e3d6000fd5b50565b60045481565b6000600660159054906101000a900463ffffffff16905090565b60006121cc613763565b60016006601a9054906101000a900463ffffffff166121eb9190614779565b60078060068060200260405190810160405280929190826006801561224b576020028201916000905b82829054906101000a900460ff1660ff16815260200190600101906020826000010492830192600103820291508084116122145790505b50505050509050915091509091565b6006601a9054906101000a900463ffffffff1681565b60006020528060005260406000206000915090508060000154908060010154908060020154908060030180546122a5906147e0565b80601f01602080910402602001604051908101604052809291908181526020018280546122d1906147e0565b801561231e5780601f106122f35761010080835404028352916020019161231e565b820191906000526020600020905b81548152906001019060200180831161230157829003601f168201915b5050505050905084565b600047905090565b6009818154811061234057600080fd5b906000526020600020016000915054906101000a900473ffffffffffffffffffffffffffffffffffffffff1681565b60025481565b60011515600660149054906101000a900460ff161515146123cb576040517f08c379a00000000000000000000000000000000000000000000000000000000081526004016123c29061485d565b60405180910390fd5b60001515600b60003373ffffffffffffffffffffffffffffffffffffffff1673ffffffffffffffffffffffffffffffffffffffff16815260200190815260200160002060000160009054906101000a900460ff161515148061249d57506006601a9054906101000a900463ffffffff1663ffffffff16600b60003373ffffffffffffffffffffffffffffffffffffffff1673ffffffffffffffffffffffffffffffffffffffff16815260200190815260200160002060000160029054906101000a900463ffffffff1663ffffffff1614155b6124dc576040517f08c379a00000000000000000000000000000000000000000000000000000000081526004016124d3906148ef565b60405180910390fd5b600660159054906101000a900463ffffffff1663ffffffff163414612536576040517f08c379a000000000000000000000000000000000000000000000000000000000815260040161252d906149a7565b60405180910390fd5b6000805b60058160ff1610156125d157600060018261255591906149c7565b90505b60068160ff1610156125bd57838160ff166006811061257a576125796140dd565b5b602002015160ff16848360ff1660068110612598576125976140dd565b5b602002015160ff16036125aa57600192505b80806125b5906149fc565b915050612558565b5080806125c9906149fc565b91505061253a565b506000151581151514612619576040517f08c379a000000000000000000000000000000000000000000000000000000000815260040161261090614a97565b60405180910390fd5b60006001905060005b60068160ff161015612694576001848260ff1660068110612646576126456140dd565b5b602002015160ff16108061267757506031848260ff166006811061266d5761266c6140dd565b5b602002015160ff16115b1561268157600091505b808061268c906149fc565b915050612622565b5060011515811515146126dc576040517f08c379a00000000000000000000000000000000000000000000000000000000081526004016126d390614b29565b60405180910390fd5b6006601a9054906101000a900463ffffffff16600b60003373ffffffffffffffffffffffffffffffffffffffff1673ffffffffffffffffffffffffffffffffffffffff16815260200190815260200160002060000160026101000a81548163ffffffff021916908363ffffffff1602179055506001600b60003373ffffffffffffffffffffffffffffffffffffffff1673ffffffffffffffffffffffffffffffffffffffff16815260200190815260200160002060000160006101000a81548160ff0219169083151502179055506000600b60003373ffffffffffffffffffffffffffffffffffffffff1673ffffffffffffffffffffffffffffffffffffffff16815260200190815260200160002060000160016101000a81548160ff02191690831515021790555060005b60068160ff1610156128b957838160ff166006811061282a576128296140dd565b5b6020020151600b60003373ffffffffffffffffffffffffffffffffffffffff1673ffffffffffffffffffffffffffffffffffffffff1681526020019081526020016000206001018260ff1660068110612886576128856140dd565b5b602091828204019190066101000a81548160ff021916908360ff16021790555080806128b1906149fc565b915050612808565b506009339080600181540180825580915050600190039060005260206000200160009091909190916101000a81548173ffffffffffffffffffffffffffffffffffffffff021916908373ffffffffffffffffffffffffffffffffffffffff1602179055506001600860008282829054906101000a900463ffffffff1661293f919061429b565b92506101000a81548163ffffffff021916908363ffffffff160217905550505050565b60035481565b600160009054906101000a900473ffffffffffffffffffffffffffffffffffffffff1673ffffffffffffffffffffffffffffffffffffffff163373ffffffffffffffffffffffffffffffffffffffff16146129f8576040517f08c379a00000000000000000000000000000000000000000000000000000000081526004016129ef9061402b565b60405180910390fd5b60008163ffffffff1611612a41576040517f08c379a0000000000000000000000000000000000000000000000000000000008152600401612a3890614bbb565b60405180910390fd5b80600660156101000a81548163ffffffff021916908363ffffffff16021790555050565b60006006601a9054906101000a900463ffffffff16905090565b60008060003373ffffffffffffffffffffffffffffffffffffffff1673ffffffffffffffffffffffffffffffffffffffff1681526020019081526020016000206001015411612b03576040517f08c379a0000000000000000000000000000000000000000000000000000000008152600401612afa9061431f565b60405180910390fd5b60003411612b46576040517f08c379a0000000000000000000000000000000000000000000000000000000008152600401612b3d90614c27565b60405180910390fd5b612b4f336134e8565b346000803373ffffffffffffffffffffffffffffffffffffffff1673ffffffffffffffffffffffffffffffffffffffff1681526020019081526020016000206000016000828254612ba0919061433f565b92505081905550426000803373ffffffffffffffffffffffffffffffffffffffff1673ffffffffffffffffffffffffffffffffffffffff16815260200190815260200160002060010181905550600660009054906101000a900473ffffffffffffffffffffffffffffffffffffffff1673ffffffffffffffffffffffffffffffffffffffff1663608032ed6040518163ffffffff1660e01b8152600401602060405180830381865afa158015612c5a573d6000803e3d6000fd5b505050506040513d601f19601f82011682018060405250810190612c7e9190614c5c565b471115612ca8574760056000828254612c97919061433f565b92505081905550612ca7476135b7565b5b565b600b6020528060005260406000206000915090508060000160009054906101000a900460ff16908060000160019054906101000a900460ff16908060000160029054906101000a900463ffffffff16905083565b600160009054906101000a900473ffffffffffffffffffffffffffffffffffffffff1673ffffffffffffffffffffffffffffffffffffffff163373ffffffffffffffffffffffffffffffffffffffff1614612d8e576040517f08c379a0000000000000000000000000000000000000000000000000000000008152600401612d859061402b565b60405180910390fd5b60008160ff16118015612da55750605a8160ff1611155b612de4576040517f08c379a0000000000000000000000000000000000000000000000000000000008152600401612ddb90614cfb565b60405180910390fd5b80600660196101000a81548160ff021916908360ff16021790555050565b60055481565b600160009054906101000a900473ffffffffffffffffffffffffffffffffffffffff1673ffffffffffffffffffffffffffffffffffffffff163373ffffffffffffffffffffffffffffffffffffffff1614612e98576040517f08c379a0000000000000000000000000000000000000000000000000000000008152600401612e8f90613f07565b60405180910390fd5b600660009054906101000a900473ffffffffffffffffffffffffffffffffffffffff1673ffffffffffffffffffffffffffffffffffffffff1663608032ed6040518163ffffffff1660e01b8152600401602060405180830381865afa158015612f05573d6000803e3d6000fd5b505050506040513d601f19601f82011682018060405250810190612f299190614c5c565b8111612f6a576040517f08c379a0000000000000000000000000000000000000000000000000000000008152600401612f6190614d8d565b60405180910390fd5b612f73816135b7565b50565b600160009054906101000a900473ffffffffffffffffffffffffffffffffffffffff1673ffffffffffffffffffffffffffffffffffffffff163373ffffffffffffffffffffffffffffffffffffffff1614613006576040517f08c379a0000000000000000000000000000000000000000000000000000000008152600401612ffd9061402b565b60405180910390fd5b6001600660146101000a81548160ff021916908315150217905550565b60008060003373ffffffffffffffffffffffffffffffffffffffff1673ffffffffffffffffffffffffffffffffffffffff16815260200190815260200160002060010154146130a7576040517f08c379a000000000000000000000000000000000000000000000000000000000815260040161309e90614df9565b60405180910390fd5b60008151036130eb576040517f08c379a00000000000000000000000000000000000000000000000000000000081526004016130e290614e65565b60405180910390fd5b60006040518060800160405280600081526020014281526020016004548152602001838152509050806000803373ffffffffffffffffffffffffffffffffffffffff1673ffffffffffffffffffffffffffffffffffffffff16815260200190815260200160002060008201518160000155602082015181600101556040820151816002015560608201518160030190816131859190615031565b509050505050565b600660009054906101000a900473ffffffffffffffffffffffffffffffffffffffff1673ffffffffffffffffffffffffffffffffffffffff16632e1a7d4d826040518263ffffffff1660e01b81526004016131e89190613862565b600060405180830381600087803b15801561320257600080fd5b505af1158015613216573d6000803e3d6000fd5b505050504260038190555050565b61322c613763565b613234613763565b6000423360405160200161324992919061516c565b6040516020818303038152906040528051906020012060001c905060005b60068160ff16101561335457600060016031846132849190615198565b61328e91906149c7565b90505b61329b8482613644565b156132ec57826040516020016132b191906151c9565b6040516020818303038152906040528051906020012060001c925060016031846132db9190615198565b6132e591906149c7565b9050613291565b80848360ff1660068110613303576133026140dd565b5b602002019060ff16908160ff16815250508260405160200161332591906151c9565b6040516020818303038152906040528051906020012060001c925050808061334c906149fc565b915050613267565b50819250505090565b6000600680146133a2576040517f08c379a000000000000000000000000000000000000000000000000000000000815260040161339990615256565b60405180910390fd5b60006001905060005b60068160ff16101561341457838160ff16600681106133cd576133cc6140dd565b5b602002015160ff16858260ff16600681106133eb576133ea6140dd565b5b602002015160ff16146134015760009150613414565b808061340c906149fc565b9150506133ab565b508091505092915050565b6000806000808473ffffffffffffffffffffffffffffffffffffffff1673ffffffffffffffffffffffffffffffffffffffff168152602001908152602001600020600101544261346f9190614471565b9050600063bbf81e00826004546000808873ffffffffffffffffffffffffffffffffffffffff1673ffffffffffffffffffffffffffffffffffffffff168152602001908152602001600020600001546134c89190614167565b6134d29190614167565b6134dc91906141d8565b90508092505050919050565b60006134f38261341f565b905042600381905550806002600082825461350e919061433f565b92505081905550806000808473ffffffffffffffffffffffffffffffffffffffff1673ffffffffffffffffffffffffffffffffffffffff1681526020019081526020016000206000016000828254613566919061433f565b92505081905550426000808473ffffffffffffffffffffffffffffffffffffffff1673ffffffffffffffffffffffffffffffffffffffff168152602001908152602001600020600101819055505050565b600660009054906101000a900473ffffffffffffffffffffffffffffffffffffffff1673ffffffffffffffffffffffffffffffffffffffff1663d0e30db0826040518263ffffffff1660e01b81526004016000604051808303818588803b15801561362157600080fd5b505af1158015613635573d6000803e3d6000fd5b50505050504260038190555050565b600080600090505b60068160ff16101561369c578260ff16848260ff1660068110613672576136716140dd565b5b602002015160ff16036136895760019150506136a2565b8080613694906149fc565b91505061364c565b50600090505b92915050565b826006601f016020900481019282156137315791602002820160005b8382111561370257835183826101000a81548160ff021916908360ff16021790555092602001926001016020816000010492830192600103026136c4565b801561372f5782816101000a81549060ff0219169055600101602081600001049283019260010302613702565b505b50905061373e9190613785565b5090565b50805460008255906000526020600020908101906137609190613785565b50565b6040518060c00160405280600690602082028036833780820191505090505090565b5b8082111561379e576000816000905550600101613786565b5090565b600063ffffffff82169050919050565b6137bb816137a2565b82525050565b60006020820190506137d660008301846137b2565b92915050565b6000604051905090565b600080fd5b600080fd5b6000819050919050565b613803816137f0565b811461380e57600080fd5b50565b600081359050613820816137fa565b92915050565b60006020828403121561383c5761383b6137e6565b5b600061384a84828501613811565b91505092915050565b61385c816137f0565b82525050565b60006020820190506138776000830184613853565b92915050565b600060ff82169050919050565b6138938161387d565b82525050565b60006020820190506138ae600083018461388a565b92915050565b600060069050919050565b600081905092915050565b6000819050919050565b6138dd8161387d565b82525050565b60006138ef83836138d4565b60208301905092915050565b6000602082019050919050565b613911816138b4565b61391b81846138bf565b9250613926826138ca565b8060005b8381101561395757815161393e87826138e3565b9650613949836138fb565b92505060018101905061392a565b505050505050565b600060e08201905061397460008301856137b2565b6139816020830184613908565b9392505050565b600081519050919050565b600082825260208201905092915050565b60005b838110156139c25780820151818401526020810190506139a7565b60008484015250505050565b6000601f19601f8301169050919050565b60006139ea82613988565b6139f48185613993565b9350613a048185602086016139a4565b613a0d816139ce565b840191505092915050565b60006020820190508181036000830152613a3281846139df565b905092915050565b600073ffffffffffffffffffffffffffffffffffffffff82169050919050565b6000613a6582613a3a565b9050919050565b613a7581613a5a565b82525050565b6000602082019050613a906000830184613a6c565b92915050565b613a9f81613a5a565b8114613aaa57600080fd5b50565b600081359050613abc81613a96565b92915050565b600060208284031215613ad857613ad76137e6565b5b6000613ae684828501613aad565b91505092915050565b60008115159050919050565b613b0481613aef565b82525050565b6000602082019050613b1f6000830184613afb565b92915050565b6000608082019050613b3a6000830187613853565b613b476020830186613853565b613b546040830185613853565b8181036060830152613b6681846139df565b905095945050505050565b600080fd5b7f4e487b7100000000000000000000000000000000000000000000000000000000600052604160045260246000fd5b613bae826139ce565b810181811067ffffffffffffffff82111715613bcd57613bcc613b76565b5b80604052505050565b6000613be06137dc565b9050613bec8282613ba5565b919050565b600067ffffffffffffffff821115613c0c57613c0b613b76565b5b602082029050919050565b600080fd5b613c258161387d565b8114613c3057600080fd5b50565b600081359050613c4281613c1c565b92915050565b6000613c5b613c5684613bf1565b613bd6565b90508060208402830185811115613c7557613c74613c17565b5b835b81811015613c9e5780613c8a8882613c33565b845260208401935050602081019050613c77565b5050509392505050565b600082601f830112613cbd57613cbc613b71565b5b6006613cca848285613c48565b91505092915050565b600060c08284031215613ce957613ce86137e6565b5b6000613cf784828501613ca8565b91505092915050565b613d09816137a2565b8114613d1457600080fd5b50565b600081359050613d2681613d00565b92915050565b600060208284031215613d4257613d416137e6565b5b6000613d5084828501613d17565b91505092915050565b6000606082019050613d6e6000830186613afb565b613d7b6020830185613afb565b613d8860408301846137b2565b949350505050565b600060208284031215613da657613da56137e6565b5b6000613db484828501613c33565b91505092915050565b600080fd5b600067ffffffffffffffff821115613ddd57613ddc613b76565b5b613de6826139ce565b9050602081019050919050565b82818337600083830152505050565b6000613e15613e1084613dc2565b613bd6565b905082815260208101848484011115613e3157613e30613dbd565b5b613e3c848285613df3565b509392505050565b600082601f830112613e5957613e58613b71565b5b8135613e69848260208601613e02565b91505092915050565b600060208284031215613e8857613e876137e6565b5b600082013567ffffffffffffffff811115613ea657613ea56137eb565b5b613eb284828501613e44565b91505092915050565b7f63616e206f6e6c792062652063616c6c656420627920746865206f776e657200600082015250565b6000613ef1601f83613993565b9150613efc82613ebb565b602082019050919050565b60006020820190508181036000830152613f2081613ee4565b9050919050565b7f446f6e2774206861766520656e6f75676820616d6f756e7420746f207769746860008201527f6472617700000000000000000000000000000000000000000000000000000000602082015250565b6000613f83602483613993565b9150613f8e82613f27565b604082019050919050565b60006020820190508181036000830152613fb281613f76565b9050919050565b7f4f6e6c792074686520636f6e74726163742061646d696e2063616e2063616c6c60008201527f20746869732066756e6374696f6e2e0000000000000000000000000000000000602082015250565b6000614015602f83613993565b915061402082613fb9565b604082019050919050565b6000602082019050818103600083015261404481614008565b9050919050565b7f54686572652073686f756c64206265206174206c65617374206f6e6520706c6160008201527f79657220696e20612067616d652e000000000000000000000000000000000000602082015250565b60006140a7602e83613993565b91506140b28261404b565b604082019050919050565b600060208201905081810360008301526140d68161409a565b9050919050565b7f4e487b7100000000000000000000000000000000000000000000000000000000600052603260045260246000fd5b7f4e487b7100000000000000000000000000000000000000000000000000000000600052601160045260246000fd5b6000614146826137a2565b915063ffffffff820361415c5761415b61410c565b5b600182019050919050565b6000614172826137f0565b915061417d836137f0565b925082820261418b816137f0565b915082820484148315176141a2576141a161410c565b5b5092915050565b7f4e487b7100000000000000000000000000000000000000000000000000000000600052601260045260246000fd5b60006141e3826137f0565b91506141ee836137f0565b9250826141fe576141fd6141a9565b5b828204905092915050565b7f57696e6e65722068617320616c726561647920636c61696d656420746865207060008201527f72697a652e000000000000000000000000000000000000000000000000000000602082015250565b6000614265602583613993565b915061427082614209565b604082019050919050565b6000602082019050818103600083015261429481614258565b9050919050565b60006142a6826137a2565b91506142b1836137a2565b9250828201905063ffffffff8111156142cd576142cc61410c565b5b92915050565b7f546869732075736572206973206e6f7420726567697374657265640000000000600082015250565b6000614309601b83613993565b9150614314826142d3565b602082019050919050565b60006020820190508181036000830152614338816142fc565b9050919050565b600061434a826137f0565b9150614355836137f0565b925082820190508082111561436d5761436c61410c565b5b92915050565b7f5769746864726177616c20616d6f756e74206d7573742062652067726561746560008201527f72207468616e207a65726f000000000000000000000000000000000000000000602082015250565b60006143cf602b83613993565b91506143da82614373565b604082019050919050565b600060208201905081810360008301526143fe816143c2565b9050919050565b7f496e73756666696369656e742062616c616e6365000000000000000000000000600082015250565b600061443b601483613993565b915061444682614405565b602082019050919050565b6000602082019050818103600083015261446a8161442e565b9050919050565b600061447c826137f0565b9150614487836137f0565b925082820390508181111561449f5761449e61410c565b5b92915050565b7f6e6f7420656e6f75676800000000000000000000000000000000000000000000600082015250565b60006144db600a83613993565b91506144e6826144a5565b602082019050919050565b6000602082019050818103600083015261450a816144ce565b9050919050565b600081905092915050565b50565b600061452c600083614511565b91506145378261451c565b600082019050919050565b600061454d8261451f565b9150819050919050565b7f5769746864726177616c206661696c6564000000000000000000000000000000600082015250565b600061458d601183613993565b915061459882614557565b602082019050919050565b600060208201905081810360008301526145bc81614580565b9050919050565b7f506c65617365207061757365207468652067616d65206265666f72652063616e60008201527f63656c6c696e672069742e000000000000000000000000000000000000000000602082015250565b600061461f602b83613993565b915061462a826145c3565b604082019050919050565b6000602082019050818103600083015261464e81614612565b9050919050565b7f596f752063616e206e6f7420676574206f746865722070656f706c652773206960008201527f6e6572657374526174652e000000000000000000000000000000000000000000602082015250565b60006146b1602b83613993565b91506146bc82614655565b604082019050919050565b600060208201905081810360008301526146e0816146a4565b9050919050565b7f546865207469636b657420697320696e76616c696420616e642074687573206360008201527f616e6e6f742070726f636565642e000000000000000000000000000000000000602082015250565b6000614743602e83613993565b915061474e826146e7565b604082019050919050565b6000602082019050818103600083015261477281614736565b9050919050565b6000614784826137a2565b915061478f836137a2565b9250828203905063ffffffff8111156147ab576147aa61410c565b5b92915050565b7f4e487b7100000000000000000000000000000000000000000000000000000000600052602260045260246000fd5b600060028204905060018216806147f857607f821691505b60208210810361480b5761480a6147b1565b5b50919050565b7f47616d65206973206e6f74206f6e676f696e672e000000000000000000000000600082015250565b6000614847601483613993565b915061485282614811565b602082019050919050565b600060208201905081810360008301526148768161483a565b9050919050565b7f4f6e6c79206f6e65207469636b6574206174206d6f737420696e20612067616d60008201527f6520726f756e642e000000000000000000000000000000000000000000000000602082015250565b60006148d9602883613993565b91506148e48261487d565b604082019050919050565b60006020820190508181036000830152614908816148cc565b9050919050565b7f496e636f72726563742070616964204574686572732c20636865636b2074686560008201527f2070726963652062792066756e6374696f6e206765745469636b65745072696360208201527f6520616e642074727920616761696e2e00000000000000000000000000000000604082015250565b6000614991605083613993565b915061499c8261490f565b606082019050919050565b600060208201905081810360008301526149c081614984565b9050919050565b60006149d28261387d565b91506149dd8361387d565b9250828201905060ff8111156149f6576149f561410c565b5b92915050565b6000614a078261387d565b915060ff8203614a1a57614a1961410c565b5b600182019050919050565b7f4e6f206475706c6963617465206e756d626572732061726520616c6c6f77656460008201527f2e00000000000000000000000000000000000000000000000000000000000000602082015250565b6000614a81602183613993565b9150614a8c82614a25565b604082019050919050565b60006020820190508181036000830152614ab081614a74565b9050919050565b7f416c6c2073656c6563746564206e756d626572732073686f756c64206265206260008201527f65747765656e20317e34392c20696e636c75736976652e000000000000000000602082015250565b6000614b13603783613993565b9150614b1e82614ab7565b604082019050919050565b60006020820190508181036000830152614b4281614b06565b9050919050565b7f546865206e6577207469636b65742070726963652073686f756c64206265206c60008201527f6172676572207468616e20302e00000000000000000000000000000000000000602082015250565b6000614ba5602d83613993565b9150614bb082614b49565b604082019050919050565b60006020820190508181036000830152614bd481614b98565b9050919050565b7f4465706f73697420616d6f756e742063616e206e6f74206265207a65726f0000600082015250565b6000614c11601e83613993565b9150614c1c82614bdb565b602082019050919050565b60006020820190508181036000830152614c4081614c04565b9050919050565b600081519050614c56816137fa565b92915050565b600060208284031215614c7257614c716137e6565b5b6000614c8084828501614c47565b91505092915050565b7f546865206e65772070657263656e746167652073686f756c64206265203e203060008201527f20616e64203c3d2039302e000000000000000000000000000000000000000000602082015250565b6000614ce5602b83613993565b9150614cf082614c89565b604082019050919050565b60006020820190508181036000830152614d1481614cd8565b9050919050565b7f4465706f73697420616d6f756e742063616e206e6f74206265206c657373207460008201527f68616e206c6f776573744465706f736974416d6f756e74000000000000000000602082015250565b6000614d77603783613993565b9150614d8282614d1b565b604082019050919050565b60006020820190508181036000830152614da681614d6a565b9050919050565b7f54686973207573657220697320616c7265616479207265676973746572656400600082015250565b6000614de3601f83613993565b9150614dee82614dad565b602082019050919050565b60006020820190508181036000830152614e1281614dd6565b9050919050565b7f4e616d65206973206e6f742070726f7669646564000000000000000000000000600082015250565b6000614e4f601483613993565b9150614e5a82614e19565b602082019050919050565b60006020820190508181036000830152614e7e81614e42565b9050919050565b60008190508160005260206000209050919050565b60006020601f8301049050919050565b600082821b905092915050565b600060088302614ee77fffffffffffffffffffffffffffffffffffffffffffffffffffffffffffffffff82614eaa565b614ef18683614eaa565b95508019841693508086168417925050509392505050565b6000819050919050565b6000614f2e614f29614f24846137f0565b614f09565b6137f0565b9050919050565b6000819050919050565b614f4883614f13565b614f5c614f5482614f35565b848454614eb7565b825550505050565b600090565b614f71614f64565b614f7c818484614f3f565b505050565b5b81811015614fa057614f95600082614f69565b600181019050614f82565b5050565b601f821115614fe557614fb681614e85565b614fbf84614e9a565b81016020851015614fce578190505b614fe2614fda85614e9a565b830182614f81565b50505b505050565b600082821c905092915050565b600061500860001984600802614fea565b1980831691505092915050565b60006150218383614ff7565b9150826002028217905092915050565b61503a82613988565b67ffffffffffffffff81111561505357615052613b76565b5b61505d82546147e0565b615068828285614fa4565b600060209050601f83116001811461509b5760008415615089578287015190505b6150938582615015565b8655506150fb565b601f1984166150a986614e85565b60005b828110156150d1578489015182556001820191506020850194506020810190506150ac565b868310156150ee57848901516150ea601f891682614ff7565b8355505b6001600288020188555050505b505050505050565b6000819050919050565b61511e615119826137f0565b615103565b82525050565b60008160601b9050919050565b600061513c82615124565b9050919050565b600061514e82615131565b9050919050565b61516661516182613a5a565b615143565b82525050565b6000615178828561510d565b6020820191506151888284615155565b6014820191508190509392505050565b60006151a3826137f0565b91506151ae836137f0565b9250826151be576151bd6141a9565b5b828206905092915050565b60006151d5828461510d565b60208201915081905092915050565b7f506c61796572206e756d626572206c656e6774682073686f756c64206265206560008201527f7175616c20746f2077696e6e6572206e756d626572206c656e6774682e000000602082015250565b6000615240603d83613993565b915061524b826151e4565b604082019050919050565b6000602082019050818103600083015261526f81615233565b905091905056fea26469706673582212208ac3dd28d735f9ea454e6aebc349b7d8f00a23059947f97f9a16d599f3078c6264736f6c63430008110033",
  "devdoc": {
    "kind": "dev",
    "methods": {},
    "version": 1
  },
  "userdoc": {
    "kind": "user",
    "methods": {},
    "version": 1
  },
  "storageLayout": {
    "storage": [
      {
        "astId": 16,
        "contract": "src/MyToken.sol:MyToken",
        "label": "users",
        "offset": 0,
        "slot": "0",
        "type": "t_mapping(t_address,t_struct(User)11_storage)"
      },
      {
        "astId": 18,
        "contract": "src/MyToken.sol:MyToken",
        "label": "admin",
        "offset": 0,
        "slot": "1",
        "type": "t_address_payable"
      },
      {
        "astId": 20,
        "contract": "src/MyToken.sol:MyToken",
        "label": "totalInterest",
        "offset": 0,
        "slot": "2",
        "type": "t_uint256"
      },
      {
        "astId": 22,
        "contract": "src/MyToken.sol:MyToken",
        "label": "lastUpdate",
        "offset": 0,
        "slot": "3",
        "type": "t_uint256"
      },
      {
        "astId": 24,
        "contract": "src/MyToken.sol:MyToken",
        "label": "interestRate",
        "offset": 0,
        "slot": "4",
        "type": "t_uint256"
      },
      {
        "astId": 26,
        "contract": "src/MyToken.sol:MyToken",
        "label": "investedAmount",
        "offset": 0,
        "slot": "5",
        "type": "t_uint256"
      },
      {
        "astId": 29,
        "contract": "src/MyToken.sol:MyToken",
        "label": "pool",
        "offset": 0,
        "slot": "6",
        "type": "t_contract(PoolWithHigherInterest)1879"
      },
      {
        "astId": 588,
        "contract": "src/MyToken.sol:MyToken",
        "label": "gameOngoing",
        "offset": 20,
        "slot": "6",
        "type": "t_bool"
      },
      {
        "astId": 590,
        "contract": "src/MyToken.sol:MyToken",
        "label": "ticketPrice",
        "offset": 21,
        "slot": "6",
        "type": "t_uint32"
      },
      {
        "astId": 592,
        "contract": "src/MyToken.sol:MyToken",
        "label": "prizePercentage",
        "offset": 25,
        "slot": "6",
        "type": "t_uint8"
      },
      {
        "astId": 594,
        "contract": "src/MyToken.sol:MyToken",
        "label": "gameRound",
        "offset": 26,
        "slot": "6",
        "type": "t_uint32"
      },
      {
        "astId": 598,
        "contract": "src/MyToken.sol:MyToken",
        "label": "winningNums",
        "offset": 0,
        "slot": "7",
        "type": "t_array(t_uint8)6_storage"
      },
      {
        "astId": 600,
        "contract": "src/MyToken.sol:MyToken",
        "label": "playerNum",
        "offset": 0,
        "slot": "8",
        "type": "t_uint32"
      },
      {
        "astId": 603,
        "contract": "src/MyToken.sol:MyToken",
        "label": "playerList",
        "offset": 0,
        "slot": "9",
        "type": "t_array(t_address)dyn_storage"
      },
      {
        "astId": 606,
        "contract": "src/MyToken.sol:MyToken",
        "label": "winnerList",
        "offset": 0,
        "slot": "10",
        "type": "t_array(t_address)dyn_storage"
      },
      {
        "astId": 611,
        "contract": "src/MyToken.sol:MyToken",
        "label": "ticketOrders",
        "offset": 0,
        "slot": "11",
        "type": "t_mapping(t_address,t_struct(LotteryTicket)622_storage)"
      },
      {
        "astId": 626,
        "contract": "src/MyToken.sol:MyToken",
        "label": "balances",
        "offset": 0,
        "slot": "12",
        "type": "t_mapping(t_address,t_uint256)"
      }
    ],
    "types": {
      "t_address": {
        "encoding": "inplace",
        "label": "address",
        "numberOfBytes": "20"
      },
      "t_address_payable": {
        "encoding": "inplace",
        "label": "address payable",
        "numberOfBytes": "20"
      },
      "t_array(t_address)dyn_storage": {
        "base": "t_address",
        "encoding": "dynamic_array",
        "label": "address[]",
        "numberOfBytes": "32"
      },
      "t_array(t_uint8)6_storage": {
        "base": "t_uint8",
        "encoding": "inplace",
        "label": "uint8[6]",
        "numberOfBytes": "32"
      },
      "t_bool": {
        "encoding": "inplace",
        "label": "bool",
        "numberOfBytes": "1"
      },
      "t_contract(PoolWithHigherInterest)1879": {
        "encoding": "inplace",
        "label": "contract PoolWithHigherInterest",
        "numberOfBytes": "20"
      },
      "t_mapping(t_address,t_struct(LotteryTicket)622_storage)": {
        "encoding": "mapping",
        "key": "t_address",
        "label": "mapping(address => struct MyToken.LotteryTicket)",
        "numberOfBytes": "32",
        "value": "t_struct(LotteryTicket)622_storage"
      },
      "t_mapping(t_address,t_struct(User)11_storage)": {
        "encoding": "mapping",
        "key": "t_address",
        "label": "mapping(address => struct MyToken.User)",
        "numberOfBytes": "32",
        "value": "t_struct(User)11_storage"
      },
      "t_mapping(t_address,t_uint256)": {
        "encoding": "mapping",
        "key": "t_address",
        "label": "mapping(address => uint256)",
        "numberOfBytes": "32",
        "value": "t_uint256"
      },
      "t_string_storage": {
        "encoding": "bytes",
        "label": "string",
        "numberOfBytes": "32"
      },
      "t_struct(LotteryTicket)622_storage": {
        "encoding": "inplace",
        "label": "struct MyToken.LotteryTicket",
        "members": [
          {
            "astId": 613,
            "contract": "src/MyToken.sol:MyToken",
            "label": "isValid",
            "offset": 0,
            "slot": "0",
            "type": "t_bool"
          },
          {
            "astId": 615,
            "contract": "src/MyToken.sol:MyToken",
            "label": "isClaimed",
            "offset": 1,
            "slot": "0",
            "type": "t_bool"
          },
          {
            "astId": 617,
            "contract": "src/MyToken.sol:MyToken",
            "label": "playerGameRound",
            "offset": 2,
            "slot": "0",
            "type": "t_uint32"
          },
          {
            "astId": 621,
            "contract": "src/MyToken.sol:MyToken",
            "label": "playerLotteryNums",
            "offset": 0,
            "slot": "1",
            "type": "t_array(t_uint8)6_storage"
          }
        ],
        "numberOfBytes": "64"
      },
      "t_struct(User)11_storage": {
        "encoding": "inplace",
        "label": "struct MyToken.User",
        "members": [
          {
            "astId": 4,
            "contract": "src/MyToken.sol:MyToken",
            "label": "balance",
            "offset": 0,
            "slot": "0",
            "type": "t_uint256"
          },
          {
            "astId": 6,
            "contract": "src/MyToken.sol:MyToken",
            "label": "lastUpdateTime",
            "offset": 0,
            "slot": "1",
            "type": "t_uint256"
          },
          {
            "astId": 8,
            "contract": "src/MyToken.sol:MyToken",
            "label": "interestRate",
            "offset": 0,
            "slot": "2",
            "type": "t_uint256"
          },
          {
            "astId": 10,
            "contract": "src/MyToken.sol:MyToken",
            "label": "name",
            "offset": 0,
            "slot": "3",
            "type": "t_string_storage"
          }
        ],
        "numberOfBytes": "128"
      },
      "t_uint256": {
        "encoding": "inplace",
        "label": "uint256",
        "numberOfBytes": "32"
      },
      "t_uint32": {
        "encoding": "inplace",
        "label": "uint32",
        "numberOfBytes": "4"
      },
      "t_uint8": {
        "encoding": "inplace",
        "label": "uint8",
        "numberOfBytes": "1"
      }
    }
  }
}